{
  "contractName": "EternalStorage",
  "abi": [
    {
      "constant": false,
      "inputs": [],
      "name": "renounceOwnership",
      "outputs": [],
      "payable": false,
      "stateMutability": "nonpayable",
      "type": "function",
      "signature": "0x715018a6"
    },
    {
      "constant": true,
      "inputs": [],
      "name": "owner",
      "outputs": [
        {
          "name": "",
          "type": "address"
        }
      ],
      "payable": false,
      "stateMutability": "view",
      "type": "function",
      "signature": "0x8da5cb5b"
    },
    {
      "constant": true,
      "inputs": [],
      "name": "isOwner",
      "outputs": [
        {
          "name": "",
          "type": "bool"
        }
      ],
      "payable": false,
      "stateMutability": "view",
      "type": "function",
      "signature": "0x8f32d59b"
    },
    {
      "constant": false,
      "inputs": [
        {
          "name": "newOwner",
          "type": "address"
        }
      ],
      "name": "transferOwnership",
      "outputs": [],
      "payable": false,
      "stateMutability": "nonpayable",
      "type": "function",
      "signature": "0xf2fde38b"
    },
    {
      "inputs": [],
      "payable": false,
      "stateMutability": "nonpayable",
      "type": "constructor",
      "signature": "constructor"
    },
    {
      "anonymous": false,
      "inputs": [
        {
          "indexed": true,
          "name": "previousOwner",
          "type": "address"
        },
        {
          "indexed": true,
          "name": "newOwner",
          "type": "address"
        }
      ],
      "name": "OwnershipTransferred",
      "type": "event",
      "signature": "0x8be0079c531659141344cd1fd0a4f28419497f9722a3daafe3b4186f6b6457e0"
    },
    {
      "constant": false,
      "inputs": [
        {
          "name": "h",
          "type": "bytes32"
        },
        {
          "name": "v",
          "type": "bool"
        }
      ],
      "name": "setBoolean",
      "outputs": [],
      "payable": false,
      "stateMutability": "nonpayable",
      "type": "function",
      "signature": "0xf8715b3e"
    },
    {
      "constant": false,
      "inputs": [
        {
          "name": "h",
          "type": "bytes32"
        },
        {
          "name": "v",
          "type": "int256"
        }
      ],
      "name": "setInt",
      "outputs": [],
      "payable": false,
      "stateMutability": "nonpayable",
      "type": "function",
      "signature": "0x3e49bed0"
    },
    {
      "constant": false,
      "inputs": [
        {
          "name": "h",
          "type": "bytes32"
        },
        {
          "name": "v",
          "type": "uint256"
        }
      ],
      "name": "setUint",
      "outputs": [],
      "payable": false,
      "stateMutability": "nonpayable",
      "type": "function",
      "signature": "0xe2a4853a"
    },
    {
      "constant": false,
      "inputs": [
        {
          "name": "h",
          "type": "bytes32"
        },
        {
          "name": "v",
          "type": "address"
        }
      ],
      "name": "setAddress",
      "outputs": [],
      "payable": false,
      "stateMutability": "nonpayable",
      "type": "function",
      "signature": "0xca446dd9"
    },
    {
      "constant": false,
      "inputs": [
        {
          "name": "h",
          "type": "bytes32"
        },
        {
          "name": "v",
          "type": "string"
        }
      ],
      "name": "setString",
      "outputs": [],
      "payable": false,
      "stateMutability": "nonpayable",
      "type": "function",
      "signature": "0x6e899550"
    },
    {
      "constant": false,
      "inputs": [
        {
          "name": "h",
          "type": "bytes32"
        },
        {
          "name": "v",
          "type": "bytes"
        }
      ],
      "name": "setBytes",
      "outputs": [],
      "payable": false,
      "stateMutability": "nonpayable",
      "type": "function",
      "signature": "0x2e28d084"
    },
    {
      "constant": true,
      "inputs": [
        {
          "name": "h",
          "type": "bytes32"
        }
      ],
      "name": "getBoolean",
      "outputs": [
        {
          "name": "",
          "type": "bool"
        }
      ],
      "payable": false,
      "stateMutability": "view",
      "type": "function",
      "signature": "0x3848207a"
    },
    {
      "constant": true,
      "inputs": [
        {
          "name": "h",
          "type": "bytes32"
        }
      ],
      "name": "getInt",
      "outputs": [
        {
          "name": "",
          "type": "int256"
        }
      ],
      "payable": false,
      "stateMutability": "view",
      "type": "function",
      "signature": "0xdc97d962"
    },
    {
      "constant": true,
      "inputs": [
        {
          "name": "h",
          "type": "bytes32"
        }
      ],
      "name": "getUint",
      "outputs": [
        {
          "name": "",
          "type": "uint256"
        }
      ],
      "payable": false,
      "stateMutability": "view",
      "type": "function",
      "signature": "0xbd02d0f5"
    },
    {
      "constant": true,
      "inputs": [
        {
          "name": "h",
          "type": "bytes32"
        }
      ],
      "name": "getAddress",
      "outputs": [
        {
          "name": "",
          "type": "address"
        }
      ],
      "payable": false,
      "stateMutability": "view",
      "type": "function",
      "signature": "0x21f8a721"
    },
    {
      "constant": true,
      "inputs": [
        {
          "name": "h",
          "type": "bytes32"
        }
      ],
      "name": "getString",
      "outputs": [
        {
          "name": "",
          "type": "string"
        }
      ],
      "payable": false,
      "stateMutability": "view",
      "type": "function",
      "signature": "0x986e791a"
    },
    {
      "constant": true,
      "inputs": [
        {
          "name": "h",
          "type": "bytes32"
        }
      ],
      "name": "getBytes",
      "outputs": [
        {
          "name": "",
          "type": "bytes"
        }
      ],
      "payable": false,
      "stateMutability": "view",
      "type": "function",
      "signature": "0xc031a180"
    },
    {
      "constant": false,
      "inputs": [
        {
          "name": "_key",
          "type": "bytes32"
        }
      ],
      "name": "deleteAddress",
      "outputs": [],
      "payable": false,
      "stateMutability": "nonpayable",
      "type": "function",
      "signature": "0x0e14a376"
    },
    {
      "constant": false,
      "inputs": [
        {
          "name": "_key",
          "type": "bytes32"
        }
      ],
      "name": "deleteUint",
      "outputs": [],
      "payable": false,
      "stateMutability": "nonpayable",
      "type": "function",
      "signature": "0xe2b202bf"
    },
    {
      "constant": false,
      "inputs": [
        {
          "name": "_key",
          "type": "bytes32"
        }
      ],
      "name": "deleteString",
      "outputs": [],
      "payable": false,
      "stateMutability": "nonpayable",
      "type": "function",
      "signature": "0xf6bb3cc4"
    },
    {
      "constant": false,
      "inputs": [
        {
          "name": "_key",
          "type": "bytes32"
        }
      ],
      "name": "deleteBytes",
      "outputs": [],
      "payable": false,
      "stateMutability": "nonpayable",
      "type": "function",
      "signature": "0x616b59f6"
    },
    {
      "constant": false,
      "inputs": [
        {
          "name": "_key",
          "type": "bytes32"
        }
      ],
      "name": "deleteBool",
      "outputs": [],
      "payable": false,
      "stateMutability": "nonpayable",
      "type": "function",
      "signature": "0x2c62ff2d"
    },
    {
      "constant": false,
      "inputs": [
        {
          "name": "_key",
          "type": "bytes32"
        }
      ],
      "name": "deleteInt",
      "outputs": [],
      "payable": false,
      "stateMutability": "nonpayable",
      "type": "function",
      "signature": "0x8c160095"
    }
  ],
  "bytecode": "0x608060405234801561001057600080fd5b50336000806101000a81548173ffffffffffffffffffffffffffffffffffffffff021916908373ffffffffffffffffffffffffffffffffffffffff1602179055506000809054906101000a900473ffffffffffffffffffffffffffffffffffffffff1673ffffffffffffffffffffffffffffffffffffffff16600073ffffffffffffffffffffffffffffffffffffffff167f8be0079c531659141344cd1fd0a4f28419497f9722a3daafe3b4186f6b6457e060405160405180910390a36112ed806100dc6000396000f3fe608060405260043610610128576000357c0100000000000000000000000000000000000000000000000000000000900463ffffffff1680630e14a3761461012d57806321f8a721146101685780632c62ff2d146101e35780632e28d0841461021e5780633848207a146102f05780633e49bed014610343578063616b59f6146103885780636e899550146103c3578063715018a6146104955780638c160095146104ac5780638da5cb5b146104e75780638f32d59b1461053e578063986e791a1461056d578063bd02d0f514610621578063c031a18014610670578063ca446dd914610724578063dc97d9621461077f578063e2a4853a146107ce578063e2b202bf14610813578063f2fde38b1461084e578063f6bb3cc41461089f578063f8715b3e146108da575b600080fd5b34801561013957600080fd5b506101666004803603602081101561015057600080fd5b8101908080359060200190929190505050610921565b005b34801561017457600080fd5b506101a16004803603602081101561018b57600080fd5b8101908080359060200190929190505050610970565b604051808273ffffffffffffffffffffffffffffffffffffffff1673ffffffffffffffffffffffffffffffffffffffff16815260200191505060405180910390f35b3480156101ef57600080fd5b5061021c6004803603602081101561020657600080fd5b81019080803590602001909291905050506109c3565b005b34801561022a57600080fd5b506102ee6004803603604081101561024157600080fd5b81019080803590602001909291908035906020019064010000000081111561026857600080fd5b82018360208201111561027a57600080fd5b8035906020019184600183028401116401000000008311171561029c57600080fd5b91908080601f016020809104026020016040519081016040528093929190818152602001838380828437600081840152601f19601f8201169050808301925050505050505091929192905050506109ff565b005b3480156102fc57600080fd5b506103296004803603602081101561031357600080fd5b8101908080359060200190929190505050610a41565b604051808215151515815260200191505060405180910390f35b34801561034f57600080fd5b506103866004803603604081101561036657600080fd5b810190808035906020019092919080359060200190929190505050610a81565b005b34801561039457600080fd5b506103c1600480360360208110156103ab57600080fd5b8101908080359060200190929190505050610ab2565b005b3480156103cf57600080fd5b50610493600480360360408110156103e657600080fd5b81019080803590602001909291908035906020019064010000000081111561040d57600080fd5b82018360208201111561041f57600080fd5b8035906020019184600183028401116401000000008311171561044157600080fd5b91908080601f016020809104026020016040519081016040528093929190818152602001838380828437600081840152601f19601f820116905080830192505050505050509192919290505050610aea565b005b3480156104a157600080fd5b506104aa610b2c565b005b3480156104b857600080fd5b506104e5600480360360208110156104cf57600080fd5b8101908080359060200190929190505050610bfe565b005b3480156104f357600080fd5b506104fc610c2d565b604051808273ffffffffffffffffffffffffffffffffffffffff1673ffffffffffffffffffffffffffffffffffffffff16815260200191505060405180910390f35b34801561054a57600080fd5b50610553610c56565b604051808215151515815260200191505060405180910390f35b34801561057957600080fd5b506105a66004803603602081101561059057600080fd5b8101908080359060200190929190505050610cad565b6040518080602001828103825283818151815260200191508051906020019080838360005b838110156105e65780820151818401526020810190506105cb565b50505050905090810190601f1680156106135780820380516001836020036101000a031916815260200191505b509250505060405180910390f35b34801561062d57600080fd5b5061065a6004803603602081101561064457600080fd5b8101908080359060200190929190505050610d78565b6040518082815260200191505060405180910390f35b34801561067c57600080fd5b506106a96004803603602081101561069357600080fd5b8101908080359060200190929190505050610dab565b6040518080602001828103825283818151815260200191508051906020019080838360005b838110156106e95780820151818401526020810190506106ce565b50505050905090810190601f1680156107165780820380516001836020036101000a031916815260200191505b509250505060405180910390f35b34801561073057600080fd5b5061077d6004803603604081101561074757600080fd5b8101908080359060200190929190803573ffffffffffffffffffffffffffffffffffffffff169060200190929190505050610e76565b005b34801561078b57600080fd5b506107b8600480360360208110156107a257600080fd5b8101908080359060200190929190505050610ee2565b6040518082815260200191505060405180910390f35b3480156107da57600080fd5b50610811600480360360408110156107f157600080fd5b810190808035906020019092919080359060200190929190505050610f14565b005b34801561081f57600080fd5b5061084c6004803603602081101561083657600080fd5b8101908080359060200190929190505050610f46565b005b34801561085a57600080fd5b5061089d6004803603602081101561087157600080fd5b81019080803573ffffffffffffffffffffffffffffffffffffffff169060200190929190505050610f76565b005b3480156108ab57600080fd5b506108d8600480360360208110156108c257600080fd5b8101908080359060200190929190505050610f95565b005b3480156108e657600080fd5b5061091f600480360360408110156108fd57600080fd5b8101908080359060200190929190803515159060200190929190505050610fcd565b005b610929610c56565b151561093457600080fd5b6001600401600082815260200190815260200160002060006101000a81549073ffffffffffffffffffffffffffffffffffffffff021916905550565b600061097a610c56565b151561098557600080fd5b6001600401600083815260200190815260200160002060009054906101000a900473ffffffffffffffffffffffffffffffffffffffff169050919050565b6109cb610c56565b15156109d657600080fd5b6001600001600082815260200190815260200160002060006101000a81549060ff021916905550565b610a07610c56565b1515610a1257600080fd5b80600160050160008481526020019081526020016000209080519060200190610a3c92919061110c565b505050565b6000610a4b610c56565b1515610a5657600080fd5b6001600001600083815260200190815260200160002060009054906101000a900460ff169050919050565b610a89610c56565b1515610a9457600080fd5b80600180016000848152602001908152602001600020819055505050565b610aba610c56565b1515610ac557600080fd5b600160050160008281526020019081526020016000206000610ae7919061118c565b50565b610af2610c56565b1515610afd57600080fd5b80600160030160008481526020019081526020016000209080519060200190610b279291906111d4565b505050565b610b34610c56565b1515610b3f57600080fd5b600073ffffffffffffffffffffffffffffffffffffffff166000809054906101000a900473ffffffffffffffffffffffffffffffffffffffff1673ffffffffffffffffffffffffffffffffffffffff167f8be0079c531659141344cd1fd0a4f28419497f9722a3daafe3b4186f6b6457e060405160405180910390a360008060006101000a81548173ffffffffffffffffffffffffffffffffffffffff021916908373ffffffffffffffffffffffffffffffffffffffff160217905550565b610c06610c56565b1515610c1157600080fd5b6001800160008281526020019081526020016000206000905550565b60008060009054906101000a900473ffffffffffffffffffffffffffffffffffffffff16905090565b60008060009054906101000a900473ffffffffffffffffffffffffffffffffffffffff1673ffffffffffffffffffffffffffffffffffffffff163373ffffffffffffffffffffffffffffffffffffffff1614905090565b6060610cb7610c56565b1515610cc257600080fd5b600160030160008381526020019081526020016000208054600181600116156101000203166002900480601f016020809104026020016040519081016040528092919081815260200182805460018160011615610100020316600290048015610d6c5780601f10610d4157610100808354040283529160200191610d6c565b820191906000526020600020905b815481529060010190602001808311610d4f57829003601f168201915b50505050509050919050565b6000610d82610c56565b1515610d8d57600080fd5b60016002016000838152602001908152602001600020549050919050565b6060610db5610c56565b1515610dc057600080fd5b600160050160008381526020019081526020016000208054600181600116156101000203166002900480601f016020809104026020016040519081016040528092919081815260200182805460018160011615610100020316600290048015610e6a5780601f10610e3f57610100808354040283529160200191610e6a565b820191906000526020600020905b815481529060010190602001808311610e4d57829003601f168201915b50505050509050919050565b610e7e610c56565b1515610e8957600080fd5b806001600401600084815260200190815260200160002060006101000a81548173ffffffffffffffffffffffffffffffffffffffff021916908373ffffffffffffffffffffffffffffffffffffffff1602179055505050565b6000610eec610c56565b1515610ef757600080fd5b600180016000838152602001908152602001600020549050919050565b610f1c610c56565b1515610f2757600080fd5b8060016002016000848152602001908152602001600020819055505050565b610f4e610c56565b1515610f5957600080fd5b600160020160008281526020019081526020016000206000905550565b610f7e610c56565b1515610f8957600080fd5b610f9281611012565b50565b610f9d610c56565b1515610fa857600080fd5b600160030160008281526020019081526020016000206000610fca9190611254565b50565b610fd5610c56565b1515610fe057600080fd5b806001600001600084815260200190815260200160002060006101000a81548160ff0219169083151502179055505050565b600073ffffffffffffffffffffffffffffffffffffffff168173ffffffffffffffffffffffffffffffffffffffff161415151561104e57600080fd5b8073ffffffffffffffffffffffffffffffffffffffff166000809054906101000a900473ffffffffffffffffffffffffffffffffffffffff1673ffffffffffffffffffffffffffffffffffffffff167f8be0079c531659141344cd1fd0a4f28419497f9722a3daafe3b4186f6b6457e060405160405180910390a3806000806101000a81548173ffffffffffffffffffffffffffffffffffffffff021916908373ffffffffffffffffffffffffffffffffffffffff16021790555050565b828054600181600116156101000203166002900490600052602060002090601f016020900481019282601f1061114d57805160ff191683800117855561117b565b8280016001018555821561117b579182015b8281111561117a57825182559160200191906001019061115f565b5b509050611188919061129c565b5090565b50805460018160011615610100020316600290046000825580601f106111b257506111d1565b601f0160209004906000526020600020908101906111d0919061129c565b5b50565b828054600181600116156101000203166002900490600052602060002090601f016020900481019282601f1061121557805160ff1916838001178555611243565b82800160010185558215611243579182015b82811115611242578251825591602001919060010190611227565b5b509050611250919061129c565b5090565b50805460018160011615610100020316600290046000825580601f1061127a5750611299565b601f016020900490600052602060002090810190611298919061129c565b5b50565b6112be91905b808211156112ba5760008160009055506001016112a2565b5090565b9056fea165627a7a7230582047505695bed768410cab386eba8f8784e6d1300faa4c4e607a14d9f131303e730029",
  "source": "pragma solidity ^0.5.0;\r\n\r\n\r\nimport \"openzeppelin-solidity/contracts/ownership/Ownable.sol\";\r\n\r\n\r\n/**\r\n * @title EternalStorage\r\n * @dev An ownable contract that can be used as a storage where the variables\r\n * are stored in a set of mappings indexed by hash names.\r\n * Contract importing following the guidelines in the zeppelinos upgreadability\r\n * contracts post: \r\n * https://github.com/zeppelinos/labs/tree/ff479995ed90c4dbb5e32294fa95b16a22bb99c8/upgradeability_using_eternal_storage\r\n * \r\n * Also, following inspiration of Yvonne Z.'s final project implementation for \r\n * eternal storage:\r\n * https://github.com/yzhang1994/proof-of-existence-dapp\r\n */\r\ncontract EternalStorage is Ownable {\r\n\r\n    struct Storage {\r\n        mapping(bytes32 => bool) _bool;\r\n        mapping(bytes32 => int) _int;\r\n        mapping(bytes32 => uint256) _uint;\r\n        mapping(bytes32 => string) _string;\r\n        mapping(bytes32 => address) _address;\r\n        mapping(bytes32 => bytes) _bytes;\r\n    }\r\n\r\n    Storage internal s;\r\n\r\n    /**\r\n    * @dev The constructor sets the original `owner` of the\r\n    * contract to the sender account.\r\n    */\r\n    constructor() public {\r\n        Ownable(msg.sender);\r\n    }\r\n\r\n    /**\r\n    * @dev Allows the owner to set a value for a boolean variable.\r\n    * @param h The keccak256 hash of the variable name\r\n    * @param v The value to be stored\r\n    */\r\n    function setBoolean(bytes32 h, bool v) external onlyOwner {\r\n        s._bool[h] = v;\r\n    }\r\n\r\n    /**\r\n    * @dev Allows the owner to set a value for a int variable.\r\n    * @param h The keccak256 hash of the variable name\r\n    * @param v The value to be stored\r\n    */\r\n    function setInt(bytes32 h, int v) external onlyOwner {\r\n        s._int[h] = v;\r\n    }\r\n\r\n    /**\r\n    * @dev Allows the owner to set a value for a boolean variable.\r\n    * @param h The keccak256 hash of the variable name\r\n    * @param v The value to be stored\r\n    */\r\n    function setUint(bytes32 h, uint256 v) external onlyOwner {\r\n        s._uint[h] = v;\r\n    }\r\n\r\n    /**\r\n    * @dev Allows the owner to set a value for a address variable.\r\n    * @param h The keccak256 hash of the variable name\r\n    * @param v The value to be stored\r\n    */\r\n    function setAddress(bytes32 h, address v) external onlyOwner {\r\n        s._address[h] = v;\r\n    }\r\n\r\n    /**\r\n    * @dev Allows the owner to set a value for a string variable.\r\n    * @param h The keccak256 hash of the variable name\r\n    * @param v The value to be stored\r\n    */\r\n    function setString(bytes32 h, string memory v) public onlyOwner {\r\n        s._string[h] = v;\r\n    }\r\n\r\n    /**\r\n    * @dev Allows the owner to set a value for a bytes variable.\r\n    * @param h The keccak256 hash of the variable name\r\n    * @param v The value to be stored\r\n    */\r\n    function setBytes(bytes32 h, bytes memory v) public onlyOwner {\r\n        s._bytes[h] = v;\r\n    }\r\n\r\n    /**\r\n    * @dev Get the value stored of a boolean variable by the hash name\r\n    * @param h The keccak256 hash of the variable name\r\n    */\r\n    function getBoolean(bytes32 h) external view onlyOwner returns (bool){\r\n        return s._bool[h];\r\n    }\r\n\r\n    /**\r\n    * @dev Get the value stored of a int variable by the hash name\r\n    * @param h The keccak256 hash of the variable name\r\n    */\r\n    function getInt(bytes32 h) external view onlyOwner returns (int){\r\n        return s._int[h];\r\n    }\r\n\r\n    /**\r\n    * @dev Get the value stored of a uint variable by the hash name\r\n    * @param h The keccak256 hash of the variable name\r\n    */\r\n    function getUint(bytes32 h) external view onlyOwner returns (uint256){\r\n        return s._uint[h];\r\n    }\r\n\r\n    /**\r\n    * @dev Get the value stored of a address variable by the hash name\r\n    * @param h The keccak256 hash of the variable name\r\n    */\r\n    function getAddress(bytes32 h) external view onlyOwner returns (address){\r\n        return s._address[h];\r\n    }\r\n\r\n    /**\r\n    * @dev Get the value stored of a string variable by the hash name\r\n    * @param h The keccak256 hash of the variable name\r\n    */\r\n    function getString(bytes32 h) external view onlyOwner returns (string memory){\r\n        return s._string[h];\r\n    }\r\n\r\n    /**\r\n    * @dev Get the value stored of a bytes variable by the hash name\r\n    * @param h The keccak256 hash of the variable name\r\n    */\r\n    function getBytes(bytes32 h) external view onlyOwner returns (bytes memory){\r\n        return s._bytes[h];\r\n    }\r\n\r\n     /**** Delete Methods ***********/\r\n    \r\n    /// @param _key The key for the record\r\n    function deleteAddress(bytes32 _key) external onlyOwner {\r\n        delete s._address[_key];\r\n    }\r\n\r\n    /// @param _key The key for the record\r\n    function deleteUint(bytes32 _key) external onlyOwner {\r\n        delete s._uint[_key];\r\n    }\r\n\r\n    /// @param _key The key for the record\r\n    function deleteString(bytes32 _key) external onlyOwner {\r\n        delete s._string[_key];\r\n    }\r\n\r\n    /// @param _key The key for the record\r\n    function deleteBytes(bytes32 _key) external onlyOwner {\r\n        delete s._bytes[_key];\r\n    }\r\n    \r\n    /// @param _key The key for the record\r\n    function deleteBool(bytes32 _key) external onlyOwner {\r\n        delete s._bool[_key];\r\n    }\r\n    \r\n    /// @param _key The key for the record\r\n    function deleteInt(bytes32 _key) external onlyOwner {\r\n        delete s._int[_key];\r\n    }\r\n}",
  "sourcePath": "/mnt/d/Documents/GitHub/consensys-eth-dev-bc-final-project-poa/contracts/external/EternalStorage.sol",
  "compiler": {
    "name": "solc",
    "version": "0.5.0+commit.1d4f565a.Emscripten.clang"
  },
  "schemaVersion": "3.0.1",
  "updatedAt": "2019-01-09T19:22:33.494Z",
  "devdoc": {
    "details": "An ownable contract that can be used as a storage where the variables\r are stored in a set of mappings indexed by hash names.\r Contract importing following the guidelines in the zeppelinos upgreadability\r contracts post: \r https://github.com/zeppelinos/labs/tree/ff479995ed90c4dbb5e32294fa95b16a22bb99c8/upgradeability_using_eternal_storage\r \r Also, following inspiration of Yvonne Z.'s final project implementation for \r eternal storage:\r https://github.com/yzhang1994/proof-of-existence-dapp\r",
    "methods": {
      "constructor": {
        "details": "The constructor sets the original `owner` of the\r contract to the sender account.\r"
      },
      "deleteAddress(bytes32)": {
        "params": {
          "_key": "The key for the record"
        }
      },
      "deleteBool(bytes32)": {
        "params": {
          "_key": "The key for the record"
        }
      },
      "deleteBytes(bytes32)": {
        "params": {
          "_key": "The key for the record"
        }
      },
      "deleteInt(bytes32)": {
        "params": {
          "_key": "The key for the record"
        }
      },
      "deleteString(bytes32)": {
        "params": {
          "_key": "The key for the record"
        }
      },
      "deleteUint(bytes32)": {
        "params": {
          "_key": "The key for the record"
        }
      },
      "getAddress(bytes32)": {
        "details": "Get the value stored of a address variable by the hash name\r",
        "params": {
          "h": "The keccak256 hash of the variable name\r"
        }
      },
      "getBoolean(bytes32)": {
        "details": "Get the value stored of a boolean variable by the hash name\r",
        "params": {
          "h": "The keccak256 hash of the variable name\r"
        }
      },
      "getBytes(bytes32)": {
        "details": "Get the value stored of a bytes variable by the hash name\r",
        "params": {
          "h": "The keccak256 hash of the variable name\r"
        }
      },
      "getInt(bytes32)": {
        "details": "Get the value stored of a int variable by the hash name\r",
        "params": {
          "h": "The keccak256 hash of the variable name\r"
        }
      },
      "getString(bytes32)": {
        "details": "Get the value stored of a string variable by the hash name\r",
        "params": {
          "h": "The keccak256 hash of the variable name\r"
        }
      },
      "getUint(bytes32)": {
        "details": "Get the value stored of a uint variable by the hash name\r",
        "params": {
          "h": "The keccak256 hash of the variable name\r"
        }
      },
      "isOwner()": {
        "return": "true if `msg.sender` is the owner of the contract."
      },
      "owner()": {
        "return": "the address of the owner."
      },
      "renounceOwnership()": {
        "details": "Allows the current owner to relinquish control of the contract."
      },
      "setAddress(bytes32,address)": {
        "details": "Allows the owner to set a value for a address variable.\r",
        "params": {
          "h": "The keccak256 hash of the variable name\r",
          "v": "The value to be stored\r"
        }
      },
      "setBoolean(bytes32,bool)": {
        "details": "Allows the owner to set a value for a boolean variable.\r",
        "params": {
          "h": "The keccak256 hash of the variable name\r",
          "v": "The value to be stored\r"
        }
      },
      "setBytes(bytes32,bytes)": {
        "details": "Allows the owner to set a value for a bytes variable.\r",
        "params": {
          "h": "The keccak256 hash of the variable name\r",
          "v": "The value to be stored\r"
        }
      },
      "setInt(bytes32,int256)": {
        "details": "Allows the owner to set a value for a int variable.\r",
        "params": {
          "h": "The keccak256 hash of the variable name\r",
          "v": "The value to be stored\r"
        }
      },
      "setString(bytes32,string)": {
        "details": "Allows the owner to set a value for a string variable.\r",
        "params": {
          "h": "The keccak256 hash of the variable name\r",
          "v": "The value to be stored\r"
        }
      },
      "setUint(bytes32,uint256)": {
        "details": "Allows the owner to set a value for a boolean variable.\r",
        "params": {
          "h": "The keccak256 hash of the variable name\r",
          "v": "The value to be stored\r"
        }
      },
      "transferOwnership(address)": {
        "details": "Allows the current owner to transfer control of the contract to a newOwner.",
        "params": {
          "newOwner": "The address to transfer ownership to."
        }
      }
    },
    "title": "EternalStorage\r"
  },
  "userdoc": {
    "methods": {
      "renounceOwnership()": {
        "notice": "Renouncing to ownership will leave the contract without an owner. It will not be possible to call the functions with the `onlyOwner` modifier anymore."
      }
    }
  }
}