{
  "contractName": "MediaManager",
  "abi": [
    {
      "constant": false,
      "inputs": [],
      "name": "unpause",
      "outputs": [],
      "payable": false,
      "stateMutability": "nonpayable",
      "type": "function",
      "signature": "0x3f4ba83a"
    },
    {
      "constant": true,
      "inputs": [
        {
          "name": "account",
          "type": "address"
        }
      ],
      "name": "isPauser",
      "outputs": [
        {
          "name": "",
          "type": "bool"
        }
      ],
      "payable": false,
      "stateMutability": "view",
      "type": "function",
      "signature": "0x46fbf68e"
    },
    {
      "constant": true,
      "inputs": [],
      "name": "paused",
      "outputs": [
        {
          "name": "",
          "type": "bool"
        }
      ],
      "payable": false,
      "stateMutability": "view",
      "type": "function",
      "signature": "0x5c975abb"
    },
    {
      "constant": false,
      "inputs": [],
      "name": "renouncePauser",
      "outputs": [],
      "payable": false,
      "stateMutability": "nonpayable",
      "type": "function",
      "signature": "0x6ef8d66d"
    },
    {
      "constant": false,
      "inputs": [],
      "name": "renounceOwnership",
      "outputs": [],
      "payable": false,
      "stateMutability": "nonpayable",
      "type": "function",
      "signature": "0x715018a6"
    },
    {
      "constant": false,
      "inputs": [
        {
          "name": "account",
          "type": "address"
        }
      ],
      "name": "addPauser",
      "outputs": [],
      "payable": false,
      "stateMutability": "nonpayable",
      "type": "function",
      "signature": "0x82dc1ec4"
    },
    {
      "constant": false,
      "inputs": [],
      "name": "pause",
      "outputs": [],
      "payable": false,
      "stateMutability": "nonpayable",
      "type": "function",
      "signature": "0x8456cb59"
    },
    {
      "constant": true,
      "inputs": [],
      "name": "owner",
      "outputs": [
        {
          "name": "",
          "type": "address"
        }
      ],
      "payable": false,
      "stateMutability": "view",
      "type": "function",
      "signature": "0x8da5cb5b"
    },
    {
      "constant": true,
      "inputs": [],
      "name": "isOwner",
      "outputs": [
        {
          "name": "",
          "type": "bool"
        }
      ],
      "payable": false,
      "stateMutability": "view",
      "type": "function",
      "signature": "0x8f32d59b"
    },
    {
      "constant": false,
      "inputs": [
        {
          "name": "newOwner",
          "type": "address"
        }
      ],
      "name": "transferOwnership",
      "outputs": [],
      "payable": false,
      "stateMutability": "nonpayable",
      "type": "function",
      "signature": "0xf2fde38b"
    },
    {
      "inputs": [],
      "payable": false,
      "stateMutability": "nonpayable",
      "type": "constructor",
      "signature": "constructor"
    },
    {
      "payable": false,
      "stateMutability": "nonpayable",
      "type": "fallback"
    },
    {
      "anonymous": false,
      "inputs": [
        {
          "indexed": false,
          "name": "mediaHash",
          "type": "string"
        },
        {
          "indexed": true,
          "name": "mediaIndex",
          "type": "uint256"
        },
        {
          "indexed": true,
          "name": "mediaOwner",
          "type": "address"
        }
      ],
      "name": "MediaAdded",
      "type": "event",
      "signature": "0x60b72bcc96d61b69c7f5f652a9ca80b5095ff580c6015145bef6c26c1350b465"
    },
    {
      "anonymous": false,
      "inputs": [
        {
          "indexed": false,
          "name": "mediaHash",
          "type": "string"
        },
        {
          "indexed": true,
          "name": "mediaIndex",
          "type": "uint256"
        },
        {
          "indexed": true,
          "name": "mediaOwner",
          "type": "address"
        }
      ],
      "name": "MediaDeleted",
      "type": "event",
      "signature": "0x4c7c8eb618978135035cd45dd7b979289e80fd5eb9d1c905feebe4b3d9b2ac8e"
    },
    {
      "anonymous": false,
      "inputs": [
        {
          "indexed": true,
          "name": "oldAddress",
          "type": "address"
        },
        {
          "indexed": true,
          "name": "newAddress",
          "type": "address"
        }
      ],
      "name": "ContractTransferred",
      "type": "event",
      "signature": "0x5497ab95c72084fe0dd76e16276fb0a3daadbb67efb881f9a49ebf05c27c94d0"
    },
    {
      "anonymous": false,
      "inputs": [
        {
          "indexed": false,
          "name": "account",
          "type": "address"
        }
      ],
      "name": "Paused",
      "type": "event",
      "signature": "0x62e78cea01bee320cd4e420270b5ea74000d11b0c9f74754ebdbfc544b05a258"
    },
    {
      "anonymous": false,
      "inputs": [
        {
          "indexed": false,
          "name": "account",
          "type": "address"
        }
      ],
      "name": "Unpaused",
      "type": "event",
      "signature": "0x5db9ee0a495bf2e6ff9c91a7834c1ba4fdd244a5e8aa4e537bd38aeae4b073aa"
    },
    {
      "anonymous": false,
      "inputs": [
        {
          "indexed": true,
          "name": "account",
          "type": "address"
        }
      ],
      "name": "PauserAdded",
      "type": "event",
      "signature": "0x6719d08c1888103bea251a4ed56406bd0c3e69723c8a1686e017e7bbe159b6f8"
    },
    {
      "anonymous": false,
      "inputs": [
        {
          "indexed": true,
          "name": "account",
          "type": "address"
        }
      ],
      "name": "PauserRemoved",
      "type": "event",
      "signature": "0xcd265ebaf09df2871cc7bd4133404a235ba12eff2041bb89d9c714a2621c7c7e"
    },
    {
      "anonymous": false,
      "inputs": [
        {
          "indexed": true,
          "name": "previousOwner",
          "type": "address"
        },
        {
          "indexed": true,
          "name": "newOwner",
          "type": "address"
        }
      ],
      "name": "OwnershipTransferred",
      "type": "event",
      "signature": "0x8be0079c531659141344cd1fd0a4f28419497f9722a3daafe3b4186f6b6457e0"
    },
    {
      "constant": false,
      "inputs": [
        {
          "name": "newAddress",
          "type": "address"
        }
      ],
      "name": "upgradeContract",
      "outputs": [
        {
          "name": "success",
          "type": "bool"
        }
      ],
      "payable": false,
      "stateMutability": "nonpayable",
      "type": "function",
      "signature": "0xeb2c0223"
    },
    {
      "constant": false,
      "inputs": [
        {
          "name": "mediaHash",
          "type": "string"
        },
        {
          "name": "isVideo",
          "type": "bool"
        },
        {
          "name": "title",
          "type": "string"
        },
        {
          "name": "tags",
          "type": "string"
        }
      ],
      "name": "addOwnedMedia",
      "outputs": [
        {
          "name": "mediaFileIndex",
          "type": "uint256"
        }
      ],
      "payable": false,
      "stateMutability": "nonpayable",
      "type": "function",
      "signature": "0x6822e93d"
    },
    {
      "constant": false,
      "inputs": [
        {
          "name": "mediaHash",
          "type": "string"
        }
      ],
      "name": "deleteOwnedMedia",
      "outputs": [
        {
          "name": "mediaDeleted",
          "type": "bool"
        }
      ],
      "payable": false,
      "stateMutability": "nonpayable",
      "type": "function",
      "signature": "0xee06b582"
    },
    {
      "constant": true,
      "inputs": [
        {
          "name": "mediaIndex",
          "type": "uint256"
        }
      ],
      "name": "getMedia",
      "outputs": [
        {
          "name": "isVideo",
          "type": "bool"
        },
        {
          "name": "title",
          "type": "string"
        },
        {
          "name": "tags",
          "type": "string"
        },
        {
          "name": "timestamp",
          "type": "uint256"
        },
        {
          "name": "mediaHash",
          "type": "string"
        },
        {
          "name": "mediaOwner",
          "type": "address"
        }
      ],
      "payable": false,
      "stateMutability": "view",
      "type": "function",
      "signature": "0xdfa2ed6a"
    },
    {
      "constant": true,
      "inputs": [
        {
          "name": "userMediaIndex",
          "type": "uint256"
        }
      ],
      "name": "getUserMedia",
      "outputs": [
        {
          "name": "isVideo",
          "type": "bool"
        },
        {
          "name": "title",
          "type": "string"
        },
        {
          "name": "tags",
          "type": "string"
        },
        {
          "name": "timestamp",
          "type": "uint256"
        },
        {
          "name": "mediaHash",
          "type": "string"
        },
        {
          "name": "mediaOwner",
          "type": "address"
        }
      ],
      "payable": false,
      "stateMutability": "view",
      "type": "function",
      "signature": "0xba16358a"
    },
    {
      "constant": true,
      "inputs": [
        {
          "name": "mediaHash",
          "type": "string"
        }
      ],
      "name": "checkIfExists",
      "outputs": [
        {
          "name": "mediaExists",
          "type": "bool"
        }
      ],
      "payable": false,
      "stateMutability": "view",
      "type": "function",
      "signature": "0xab0a59a8"
    },
    {
      "constant": true,
      "inputs": [
        {
          "name": "mediaHash",
          "type": "string"
        }
      ],
      "name": "getMediaIndexByHash",
      "outputs": [
        {
          "name": "mediaIndex",
          "type": "uint256"
        }
      ],
      "payable": false,
      "stateMutability": "view",
      "type": "function",
      "signature": "0x0a46d881"
    },
    {
      "constant": true,
      "inputs": [
        {
          "name": "mediaFileHash",
          "type": "string"
        }
      ],
      "name": "getMediaByMediaHash",
      "outputs": [
        {
          "name": "isVideo",
          "type": "bool"
        },
        {
          "name": "title",
          "type": "string"
        },
        {
          "name": "tags",
          "type": "string"
        },
        {
          "name": "timestamp",
          "type": "uint256"
        },
        {
          "name": "mediaHash",
          "type": "string"
        },
        {
          "name": "mediaOwner",
          "type": "address"
        }
      ],
      "payable": false,
      "stateMutability": "view",
      "type": "function",
      "signature": "0x607caa3b"
    },
    {
      "constant": true,
      "inputs": [],
      "name": "lastMediaIndex",
      "outputs": [
        {
          "name": "",
          "type": "uint256"
        }
      ],
      "payable": false,
      "stateMutability": "view",
      "type": "function",
      "signature": "0x30393192"
    },
    {
      "constant": true,
      "inputs": [],
      "name": "getUserMediaIndex",
      "outputs": [
        {
          "name": "totalAddedFiles",
          "type": "uint256"
        },
        {
          "name": "currentFilesCount",
          "type": "uint256"
        }
      ],
      "payable": false,
      "stateMutability": "view",
      "type": "function",
      "signature": "0xf286d9f6"
    }
  ],
  "bytecode": "0x60806040523480156200001157600080fd5b5060008054600160a060020a0319163317808255604051600160a060020a039190911691907f8be0079c531659141344cd1fd0a4f28419497f9722a3daafe3b4186f6b6457e0908290a36200006f33640100000000620000cd810204565b6002805460ff1916905562000083620001b2565b604051809103906000f080158015620000a0573d6000803e3d6000fd5b50600260016101000a815481600160a060020a030219169083600160a060020a03160217905550620001c3565b620000e860018264010000000062003a8b6200011f82021704565b604051600160a060020a038216907f6719d08c1888103bea251a4ed56406bd0c3e69723c8a1686e017e7bbe159b6f890600090a250565b600160a060020a03811615156200013557600080fd5b6200014a82826401000000006200017a810204565b156200015557600080fd5b600160a060020a0316600090815260209190915260409020805460ff19166001179055565b6000600160a060020a03821615156200019257600080fd5b50600160a060020a03166000908152602091909152604090205460ff1690565b604051610d378062003d9883390190565b613bc580620001d36000396000f3fe6080604052600436106100f85763ffffffff60e060020a6000350416630a46d881811461010757806330393192146101cc5780633f4ba83a146101e157806346fbf68e146101f85780635c975abb1461023f578063607caa3b146102545780636822e93d146104765780636ef8d66d14610641578063715018a61461065657806382dc1ec41461066b5780638456cb591461069e5780638da5cb5b146106b35780638f32d59b146106e4578063ab0a59a8146106f9578063ba16358a146107ac578063dfa2ed6a146107d6578063eb2c022314610800578063ee06b58214610833578063f286d9f6146108e6578063f2fde38b14610914575b34801561010457600080fd5b50005b34801561011357600080fd5b506101ba6004803603602081101561012a57600080fd5b81019060208101813564010000000081111561014557600080fd5b82018360208201111561015757600080fd5b8035906020019184600183028401116401000000008311171561017957600080fd5b91908080601f016020809104026020016040519081016040528093929190818152602001838380828437600092019190915250929550610947945050505050565b60408051918252519081900360200190f35b3480156101d857600080fd5b506101ba6109f7565b3480156101ed57600080fd5b506101f6610ab7565b005b34801561020457600080fd5b5061022b6004803603602081101561021b57600080fd5b5035600160a060020a0316610b1b565b604080519115158252519081900360200190f35b34801561024b57600080fd5b5061022b610b34565b34801561026057600080fd5b506103076004803603602081101561027757600080fd5b81019060208101813564010000000081111561029257600080fd5b8201836020820111156102a457600080fd5b803590602001918460018302840111640100000000831117156102c657600080fd5b91908080601f016020809104026020016040519081016040528093929190818152602001838380828437600092019190915250929550610b3d945050505050565b604051808715151515815260200180602001806020018681526020018060200185600160a060020a0316600160a060020a03168152602001848103845289818151815260200191508051906020019080838360005b8381101561037457818101518382015260200161035c565b50505050905090810190601f1680156103a15780820380516001836020036101000a031916815260200191505b5084810383528851815288516020918201918a019080838360005b838110156103d45781810151838201526020016103bc565b50505050905090810190601f1680156104015780820380516001836020036101000a031916815260200191505b50848103825286518152865160209182019188019080838360005b8381101561043457818101518382015260200161041c565b50505050905090810190601f1680156104615780820380516001836020036101000a031916815260200191505b50995050505050505050505060405180910390f35b34801561048257600080fd5b506101ba6004803603608081101561049957600080fd5b8101906020810181356401000000008111156104b457600080fd5b8201836020820111156104c657600080fd5b803590602001918460018302840111640100000000831117156104e857600080fd5b91908080601f01602080910402602001604051908101604052809392919081815260200183838082843760009201919091525092958435151595909490935060408101925060200135905064010000000081111561054557600080fd5b82018360208201111561055757600080fd5b8035906020019184600183028401116401000000008311171561057957600080fd5b91908080601f01602080910402602001604051908101604052809392919081815260200183838082843760009201919091525092959493602081019350359150506401000000008111156105cc57600080fd5b8201836020820111156105de57600080fd5b8035906020019184600183028401116401000000008311171561060057600080fd5b91908080601f016020809104026020016040519081016040528093929190818152602001838380828437600092019190915250929550610b6d945050505050565b34801561064d57600080fd5b506101f6611a5f565b34801561066257600080fd5b506101f6611a6a565b34801561067757600080fd5b506101f66004803603602081101561068e57600080fd5b5035600160a060020a0316611ad4565b3480156106aa57600080fd5b506101f6611af4565b3480156106bf57600080fd5b506106c8611b5a565b60408051600160a060020a039092168252519081900360200190f35b3480156106f057600080fd5b5061022b611b69565b34801561070557600080fd5b5061022b6004803603602081101561071c57600080fd5b81019060208101813564010000000081111561073757600080fd5b82018360208201111561074957600080fd5b8035906020019184600183028401116401000000008311171561076b57600080fd5b91908080601f016020809104026020016040519081016040528093929190818152602001838380828437600092019190915250929550611b7a945050505050565b3480156107b857600080fd5b50610307600480360360208110156107cf57600080fd5b5035611c38565b3480156107e257600080fd5b50610307600480360360208110156107f957600080fd5b5035611e78565b34801561080c57600080fd5b5061022b6004803603602081101561082357600080fd5b5035600160a060020a0316612604565b34801561083f57600080fd5b5061022b6004803603602081101561085657600080fd5b81019060208101813564010000000081111561087157600080fd5b82018360208201111561088357600080fd5b803590602001918460018302840111640100000000831117156108a557600080fd5b91908080601f016020809104026020016040519081016040528093929190818152602001838380828437600092019190915250929550612784945050505050565b3480156108f257600080fd5b506108fb61333d565b6040805192835260208301919091528051918290030190f35b34801561092057600080fd5b506101f66004803603602081101561093757600080fd5b5035600160a060020a03166134ed565b60025460408051808201909152600c8152600080516020613b5a83398151915260208201526000916101009004600160a060020a03169063bd02d0f59061098e9085613509565b6040518263ffffffff1660e060020a0281526004018082815260200191505060206040518083038186803b1580156109c557600080fd5b505afa1580156109d9573d6000803e3d6000fd5b505050506040513d60208110156109ef57600080fd5b505192915050565b60025460408051808201909152600e81527f6c6173744d65646961496e64657800000000000000000000000000000000000060208201526000916101009004600160a060020a03169063bd02d0f590610a4f906135cb565b6040518263ffffffff1660e060020a0281526004018082815260200191505060206040518083038186803b158015610a8657600080fd5b505afa158015610a9a573d6000803e3d6000fd5b505050506040513d6020811015610ab057600080fd5b5051905090565b610ac033610b1b565b1515610acb57600080fd5b60025460ff161515610adc57600080fd5b6002805460ff191690556040805133815290517f5db9ee0a495bf2e6ff9c91a7834c1ba4fdd244a5e8aa4e537bd38aeae4b073aa9181900360200190a1565b6000610b2e60018363ffffffff61364216565b92915050565b60025460ff1690565b6000606080600060606000610b59610b5488610947565b611e78565b949c939b5091995097509550909350915050565b60025460009060ff1615610b8057600080fd5b600260019054906101000a9004600160a060020a0316600160a060020a031663bd02d0f5610bd16040805190810160405280600c8152602001600080516020613b5a83398151915281525088613509565b6040518263ffffffff1660e060020a0281526004018082815260200191505060206040518083038186803b158015610c0857600080fd5b505afa158015610c1c573d6000803e3d6000fd5b505050506040513d6020811015610c3257600080fd5b505115610c89576040805160e560020a62461bcd02815260206004820152601d60248201527f4d656469612066696c652073686f756c64206e6f74206578697374732e000000604482015290519081900360640190fd5b331515610d06576040805160e560020a62461bcd02815260206004820152602860248201527f546865206f776e65722061646472657373206d75737420626520612076616c6960448201527f64206f6e65212121000000000000000000000000000000000000000000000000606482015290519081900360840190fd5b6000610dde6001600260019054906101000a9004600160a060020a0316600160a060020a031663bd02d0f5610d6f6040805190810160405280600e81526020017f6c6173744d65646961496e6465780000000000000000000000000000000000008152506135cb565b6040518263ffffffff1660e060020a0281526004018082815260200191505060206040518083038186803b158015610da657600080fd5b505afa158015610dba573d6000803e3d6000fd5b505050506040513d6020811015610dd057600080fd5b50519063ffffffff61367916565b90506000600260019054906101000a9004600160a060020a0316600160a060020a031663bd02d0f5610e576040805190810160405280600c8152602001600080516020613b1a833981519152815250336040805190810160405280600e8152602001600080516020613ada833981519152815250613692565b6040518263ffffffff1660e060020a0281526004018082815260200191505060206040518083038186803b158015610e8e57600080fd5b505afa158015610ea2573d6000803e3d6000fd5b505050506040513d6020811015610eb857600080fd5b505160408051808201909152600c8152600080516020613b5a8339815191526020820152909150600090610eec9089613509565b9050600260019054906101000a9004600160a060020a0316600160a060020a031663f8715b3e610f7560408051908101604052806008815260200160c460020a6706d656469614d61702815250866040805190810160405280600781526020017f6973566964656f00000000000000000000000000000000000000000000000000815250613778565b896040518363ffffffff1660e060020a028152600401808381526020018215151515815260200192505050600060405180830381600087803b158015610fba57600080fd5b505af1158015610fce573d6000803e3d6000fd5b50505050600260019054906101000a9004600160a060020a0316600160a060020a0316636e89955061105960408051908101604052806008815260200160c460020a6706d656469614d61702815250866040805190810160405280600581526020017f7469746c65000000000000000000000000000000000000000000000000000000815250613778565b6040805160e060020a63ffffffff851602815260048101838152602482019283528b5160448301528b518c93919260640190602085019080838360005b838110156110ae578181015183820152602001611096565b50505050905090810190601f1680156110db5780820380516001836020036101000a031916815260200191505b509350505050600060405180830381600087803b1580156110fb57600080fd5b505af115801561110f573d6000803e3d6000fd5b50505050600260019054906101000a9004600160a060020a0316600160a060020a0316636e89955061119a60408051908101604052806008815260200160c460020a6706d656469614d61702815250866040805190810160405280600481526020017f7461677300000000000000000000000000000000000000000000000000000000815250613778565b6040805160e060020a63ffffffff851602815260048101838152602482019283528a5160448301528a518b93919260640190602085019080838360005b838110156111ef5781810151838201526020016111d7565b50505050905090810190601f16801561121c5780820380516001836020036101000a031916815260200191505b509350505050600060405180830381600087803b15801561123c57600080fd5b505af1158015611250573d6000803e3d6000fd5b50505050600260019054906101000a9004600160a060020a0316600160a060020a031663e2a4853a6112db60408051908101604052806008815260200160c460020a6706d656469614d61702815250866040805190810160405280600981526020017f74696d657374616d700000000000000000000000000000000000000000000000815250613778565b426040518363ffffffff1660e060020a0281526004018083815260200182815260200192505050600060405180830381600087803b15801561131c57600080fd5b505af1158015611330573d6000803e3d6000fd5b50505050600260019054906101000a9004600160a060020a0316600160a060020a0316636e8995506113bb60408051908101604052806008815260200160c460020a6706d656469614d61702815250866040805190810160405280600981526020017f6d65646961486173680000000000000000000000000000000000000000000000815250613778565b6040805160e060020a63ffffffff851602815260048101838152602482019283528d5160448301528d518e93919260640190602085019080838360005b838110156114105781810151838201526020016113f8565b50505050905090810190601f16801561143d5780820380516001836020036101000a031916815260200191505b509350505050600060405180830381600087803b15801561145d57600080fd5b505af1158015611471573d6000803e3d6000fd5b50505050600260019054906101000a9004600160a060020a0316600160a060020a031663ca446dd96114ea60408051908101604052806008815260200160c460020a6706d656469614d61702815250866040805190810160405280600a8152602001600080516020613afa833981519152815250613778565b6040805160e060020a63ffffffff8516028152600481019290925233602483015251604480830192600092919082900301818387803b15801561152c57600080fd5b505af1158015611540573d6000803e3d6000fd5b50505050600260019054906101000a9004600160a060020a0316600160a060020a031663e2a4853a6115966040805190810160405280600c8152602001600080516020613b1a83398151915281525033866137fc565b856040518363ffffffff1660e060020a0281526004018083815260200182815260200192505050600060405180830381600087803b1580156115d757600080fd5b505af11580156115eb573d6000803e3d6000fd5b50505050600260019054906101000a9004600160a060020a0316600160a060020a031663e2a4853a6116536040805190810160405280601181526020017f757365724d656469614d6170496e64657800000000000000000000000000000081525033876137fc565b846040518363ffffffff1660e060020a0281526004018083815260200182815260200192505050600060405180830381600087803b15801561169457600080fd5b505af11580156116a8573d6000803e3d6000fd5b50505050600260019054906101000a9004600160a060020a0316600160a060020a031663e2a4853a6117216040805190810160405280600e8152602001600080516020613b3a833981519152815250336040805190810160405280600a8152602001600080516020613b7a833981519152815250613692565b841561173d5761173885600163ffffffff61367916565b611740565b60015b6040518363ffffffff1660e060020a0281526004018083815260200182815260200192505050600060405180830381600087803b15801561178057600080fd5b505af1158015611794573d6000803e3d6000fd5b50505050600260019054906101000a9004600160a060020a0316600160a060020a031663e2a4853a61180d6040805190810160405280600c8152602001600080516020613b1a833981519152815250336040805190810160405280600e8152602001600080516020613ada833981519152815250613692565b61181e85600163ffffffff61367916565b6040518363ffffffff1660e060020a0281526004018083815260200182815260200192505050600060405180830381600087803b15801561185e57600080fd5b505af1158015611872573d6000803e3d6000fd5b50505050600260019054906101000a9004600160a060020a0316600160a060020a031663e2a4853a82856040518363ffffffff1660e060020a0281526004018083815260200182815260200192505050600060405180830381600087803b1580156118dc57600080fd5b505af11580156118f0573d6000803e3d6000fd5b50505050600260019054906101000a9004600160a060020a0316600160a060020a031663e2a4853a6119566040805190810160405280600e81526020017f6c6173744d65646961496e6465780000000000000000000000000000000000008152506135cb565b856040518363ffffffff1660e060020a0281526004018083815260200182815260200192505050600060405180830381600087803b15801561199757600080fd5b505af11580156119ab573d6000803e3d6000fd5b5050505033600160a060020a0316837f60b72bcc96d61b69c7f5f652a9ca80b5095ff580c6015145bef6c26c1350b4658a6040518080602001828103825283818151815260200191508051906020019080838360005b83811015611a19578181015183820152602001611a01565b50505050905090810190601f168015611a465780820380516001836020036101000a031916815260200191505b509250505060405180910390a350909695505050505050565b611a68336138a6565b565b611a72611b69565b1515611a7d57600080fd5b60008054604051600160a060020a03909116907f8be0079c531659141344cd1fd0a4f28419497f9722a3daafe3b4186f6b6457e0908390a36000805473ffffffffffffffffffffffffffffffffffffffff19169055565b611add33610b1b565b1515611ae857600080fd5b611af1816138ee565b50565b611afd33610b1b565b1515611b0857600080fd5b60025460ff1615611b1857600080fd5b6002805460ff191660011790556040805133815290517f62e78cea01bee320cd4e420270b5ea74000d11b0c9f74754ebdbfc544b05a2589181900360200190a1565b600054600160a060020a031690565b600054600160a060020a0316331490565b600080600260019054906101000a9004600160a060020a0316600160a060020a031663bd02d0f5611bce6040805190810160405280600c8152602001600080516020613b5a83398151915281525086613509565b6040518263ffffffff1660e060020a0281526004018082815260200191505060206040518083038186803b158015611c0557600080fd5b505afa158015611c19573d6000803e3d6000fd5b505050506040513d6020811015611c2f57600080fd5b50511192915050565b600060608060006060600080600260019054906101000a9004600160a060020a0316600160a060020a031663bd02d0f5611cb96040805190810160405280600c8152602001600080516020613b1a833981519152815250336040805190810160405280600e8152602001600080516020613ada833981519152815250613692565b6040518263ffffffff1660e060020a0281526004018082815260200191505060206040518083038186803b158015611cf057600080fd5b505afa158015611d04573d6000803e3d6000fd5b505050506040513d6020811015611d1a57600080fd5b5051905080611d3089600163ffffffff61393616565b1115611dac576040805160e560020a62461bcd02815260206004820152602560248201527f4d6564696120696e646578206e6f7420666f756e6420666f722074686973206f60448201527f776e65722e000000000000000000000000000000000000000000000000000000606482015290519081900360840190fd5b60025460408051808201909152600c8152600080516020613b1a83398151915260208201526000916101009004600160a060020a03169063bd02d0f590611df490338d6137fc565b6040518263ffffffff1660e060020a0281526004018082815260200191505060206040518083038186803b158015611e2b57600080fd5b505afa158015611e3f573d6000803e3d6000fd5b505050506040513d6020811015611e5557600080fd5b50519050611e6281611e78565b949e939d50919b50995097509095509350505050565b6000606080828181808711611efd576040805160e560020a62461bcd02815260206004820152602360248201527f4d6564696120696e646578206d7573742062652067726561746572207468616e60448201527f20302e0000000000000000000000000000000000000000000000000000000000606482015290519081900360840190fd5b600260019054906101000a9004600160a060020a0316600160a060020a03166321f8a721611f7260408051908101604052806008815260200160c460020a6706d656469614d617028152508a6040805190810160405280600a8152602001600080516020613afa833981519152815250613778565b6040518263ffffffff1660e060020a0281526004018082815260200191505060206040518083038186803b158015611fa957600080fd5b505afa158015611fbd573d6000803e3d6000fd5b505050506040513d6020811015611fd357600080fd5b50519050600160a060020a038116151561205d576040805160e560020a62461bcd02815260206004820152603d60248201527f4d656469612066696c65206e6f7420666f756e64206f722069742773206e6f7460448201527f2061737369676e656420746f20746865207269676874206f776e65722e000000606482015290519081900360840190fd5b600260019054906101000a9004600160a060020a0316600160a060020a0316633848207a6120e460408051908101604052806008815260200160c460020a6706d656469614d617028152508a6040805190810160405280600781526020017f6973566964656f00000000000000000000000000000000000000000000000000815250613778565b6040518263ffffffff1660e060020a0281526004018082815260200191505060206040518083038186803b15801561211b57600080fd5b505afa15801561212f573d6000803e3d6000fd5b505050506040513d602081101561214557600080fd5b50516002546040805180820182526008815260c460020a6706d656469614d617026020808301919091528251808401909352600583527f7469746c6500000000000000000000000000000000000000000000000000000090830152929850610100909104600160a060020a03169163986e791a916121c591908b90613778565b6040518263ffffffff1660e060020a0281526004018082815260200191505060006040518083038186803b1580156121fc57600080fd5b505afa158015612210573d6000803e3d6000fd5b505050506040513d6000823e601f3d908101601f19168201604052602081101561223957600080fd5b81019080805164010000000081111561225157600080fd5b8201602081018481111561226457600080fd5b815164010000000081118282018710171561227e57600080fd5b50509291905050509450600260019054906101000a9004600160a060020a0316600160a060020a031663986e791a61230f60408051908101604052806008815260200160c460020a6706d656469614d617028152508a6040805190810160405280600481526020017f7461677300000000000000000000000000000000000000000000000000000000815250613778565b6040518263ffffffff1660e060020a0281526004018082815260200191505060006040518083038186803b15801561234657600080fd5b505afa15801561235a573d6000803e3d6000fd5b505050506040513d6000823e601f3d908101601f19168201604052602081101561238357600080fd5b81019080805164010000000081111561239b57600080fd5b820160208101848111156123ae57600080fd5b81516401000000008111828201871017156123c857600080fd5b50509291905050509350600260019054906101000a9004600160a060020a0316600160a060020a031663bd02d0f561245960408051908101604052806008815260200160c460020a6706d656469614d617028152508a6040805190810160405280600981526020017f74696d657374616d700000000000000000000000000000000000000000000000815250613778565b6040518263ffffffff1660e060020a0281526004018082815260200191505060206040518083038186803b15801561249057600080fd5b505afa1580156124a4573d6000803e3d6000fd5b505050506040513d60208110156124ba57600080fd5b50516002546040805180820182526008815260c460020a6706d656469614d617026020808301919091528251808401909352600983527f6d6564696148617368000000000000000000000000000000000000000000000090830152929550610100909104600160a060020a03169163986e791a9161253a91908b90613778565b6040518263ffffffff1660e060020a0281526004018082815260200191505060006040518083038186803b15801561257157600080fd5b505afa158015612585573d6000803e3d6000fd5b505050506040513d6000823e601f3d908101601f1916820160405260208110156125ae57600080fd5b8101908080516401000000008111156125c657600080fd5b820160208101848111156125d957600080fd5b81516401000000008111828201871017156125f357600080fd5b509095505050505091939550919395565b600061260e611b69565b151561261957600080fd5b60025460ff16151561262a57600080fd5b600160a060020a03821615156126b0576040805160e560020a62461bcd02815260206004820152602a60248201527f73686f756c642070726f7669646520612076616c69642061646472657373207460448201527f6f20757067726164652e00000000000000000000000000000000000000000000606482015290519081900360840190fd5b81600160a060020a03166126c2611b5a565b600160a060020a03167f5497ab95c72084fe0dd76e16276fb0a3daadbb67efb881f9a49ebf05c27c94d060405160405180910390a3600254604080517ff2fde38b000000000000000000000000000000000000000000000000000000008152600160a060020a03858116600483015291516101009093049091169163f2fde38b9160248082019260009290919082900301818387803b15801561276457600080fd5b505af1158015612778573d6000803e3d6000fd5b50600195945050505050565b60025460009060ff161561279757600080fd5b60006127c66040805190810160405280600c8152602001600080516020613b5a83398151915281525084613509565b90506000600260019054906101000a9004600160a060020a0316600160a060020a031663bd02d0f5836040518263ffffffff1660e060020a0281526004018082815260200191505060206040518083038186803b15801561282657600080fd5b505afa15801561283a573d6000803e3d6000fd5b505050506040513d602081101561285057600080fd5b505190508015156128d0576040805160e560020a62461bcd028152602060048201526024808201527f546865206d656469612066696c6520746f2064656c657465206d75737420657860448201527f6973742100000000000000000000000000000000000000000000000000000000606482015290519081900360840190fd5b336128da8261394b565b600160a060020a03161461295e576040805160e560020a62461bcd02815260206004820152602f60248201527f4f6e6c7920746865206f776e6572206f6620746865206d656469612066696c6560448201527f2063616e2064656c657465206974210000000000000000000000000000000000606482015290519081900360840190fd5b60025460408051808201909152601181527f757365724d656469614d6170496e64657800000000000000000000000000000060208201526000916101009004600160a060020a03169063bd02d0f5906129b89033866137fc565b6040518263ffffffff1660e060020a0281526004018082815260200191505060206040518083038186803b1580156129ef57600080fd5b505afa158015612a03573d6000803e3d6000fd5b505050506040513d6020811015612a1957600080fd5b50516002546040805180820182526008815260c460020a6706d656469614d617026020808301919091528251808401909352600783527f6973566964656f0000000000000000000000000000000000000000000000000090830152929350610100909104600160a060020a031691632c62ff2d91612a9991908690613778565b6040518263ffffffff1660e060020a02815260040180828152602001915050600060405180830381600087803b158015612ad257600080fd5b505af1158015612ae6573d6000803e3d6000fd5b50505050600260019054906101000a9004600160a060020a0316600160a060020a031663f6bb3cc4612b7160408051908101604052806008815260200160c460020a6706d656469614d61702815250856040805190810160405280600581526020017f7469746c65000000000000000000000000000000000000000000000000000000815250613778565b6040518263ffffffff1660e060020a02815260040180828152602001915050600060405180830381600087803b158015612baa57600080fd5b505af1158015612bbe573d6000803e3d6000fd5b50505050600260019054906101000a9004600160a060020a0316600160a060020a031663f6bb3cc4612c4960408051908101604052806008815260200160c460020a6706d656469614d61702815250856040805190810160405280600481526020017f7461677300000000000000000000000000000000000000000000000000000000815250613778565b6040518263ffffffff1660e060020a02815260040180828152602001915050600060405180830381600087803b158015612c8257600080fd5b505af1158015612c96573d6000803e3d6000fd5b50505050600260019054906101000a9004600160a060020a0316600160a060020a031663e2b202bf612d2160408051908101604052806008815260200160c460020a6706d656469614d61702815250856040805190810160405280600981526020017f74696d657374616d700000000000000000000000000000000000000000000000815250613778565b6040518263ffffffff1660e060020a02815260040180828152602001915050600060405180830381600087803b158015612d5a57600080fd5b505af1158015612d6e573d6000803e3d6000fd5b50505050600260019054906101000a9004600160a060020a0316600160a060020a031663f6bb3cc4612df960408051908101604052806008815260200160c460020a6706d656469614d61702815250856040805190810160405280600981526020017f6d65646961486173680000000000000000000000000000000000000000000000815250613778565b6040518263ffffffff1660e060020a02815260040180828152602001915050600060405180830381600087803b158015612e3257600080fd5b505af1158015612e46573d6000803e3d6000fd5b50505050600260019054906101000a9004600160a060020a0316600160a060020a0316630e14a376612ebf60408051908101604052806008815260200160c460020a6706d656469614d61702815250856040805190810160405280600a8152602001600080516020613afa833981519152815250613778565b6040518263ffffffff1660e060020a02815260040180828152602001915050600060405180830381600087803b158015612ef857600080fd5b505af1158015612f0c573d6000803e3d6000fd5b50505050600260019054906101000a9004600160a060020a0316600160a060020a031663e2b202bf612f626040805190810160405280600c8152602001600080516020613b1a83398151915281525033856137fc565b6040518263ffffffff1660e060020a02815260040180828152602001915050600060405180830381600087803b158015612f9b57600080fd5b505af1158015612faf573d6000803e3d6000fd5b50505050600260019054906101000a9004600160a060020a0316600160a060020a031663e2b202bf6130176040805190810160405280601181526020017f757365724d656469614d6170496e64657800000000000000000000000000000081525033866137fc565b6040518263ffffffff1660e060020a02815260040180828152602001915050600060405180830381600087803b15801561305057600080fd5b505af1158015613064573d6000803e3d6000fd5b50505050600260019054906101000a9004600160a060020a0316600160a060020a031663e2b202bf846040518263ffffffff1660e060020a02815260040180828152602001915050600060405180830381600087803b1580156130c657600080fd5b505af11580156130da573d6000803e3d6000fd5b505050506000600260019054906101000a9004600160a060020a0316600160a060020a031663bd02d0f56131556040805190810160405280600e8152602001600080516020613b3a833981519152815250336040805190810160405280600a8152602001600080516020613b7a833981519152815250613692565b6040518263ffffffff1660e060020a0281526004018082815260200191505060206040518083038186803b15801561318c57600080fd5b505afa1580156131a0573d6000803e3d6000fd5b505050506040513d60208110156131b657600080fd5b5051600254604080518082018252600e8152600080516020613b3a8339815191526020808301919091528251808401909352600a8352600080516020613b7a83398151915290830152929350610100909104600160a060020a03169163e2a4853a9161322491903390613692565b61323584600163ffffffff61393616565b6040518363ffffffff1660e060020a0281526004018083815260200182815260200192505050600060405180830381600087803b15801561327557600080fd5b505af1158015613289573d6000803e3d6000fd5b5050505033600160a060020a0316837f4c7c8eb618978135035cd45dd7b979289e80fd5eb9d1c905feebe4b3d9b2ac8e886040518080602001828103825283818151815260200191508051906020019080838360005b838110156132f75781810151838201526020016132df565b50505050905090810190601f1680156133245780820380516001836020036101000a031916815260200191505b509250505060405180910390a350600195945050505050565b600080600260019054906101000a9004600160a060020a0316600160a060020a031663bd02d0f56133b56040805190810160405280600c8152602001600080516020613b1a833981519152815250336040805190810160405280600e8152602001600080516020613ada833981519152815250613692565b6040518263ffffffff1660e060020a0281526004018082815260200191505060206040518083038186803b1580156133ec57600080fd5b505afa158015613400573d6000803e3d6000fd5b505050506040513d602081101561341657600080fd5b5051600254604080518082018252600e8152600080516020613b3a8339815191526020808301919091528251808401909352600a8352600080516020613b7a83398151915290830152610100909204600160a060020a03169163bd02d0f59161348191903390613692565b6040518263ffffffff1660e060020a0281526004018082815260200191505060206040518083038186803b1580156134b857600080fd5b505afa1580156134cc573d6000803e3d6000fd5b505050506040513d60208110156134e257600080fd5b505190925090509091565b6134f5611b69565b151561350057600080fd5b611af1816139c2565b600082826040516020018083805190602001908083835b6020831061353f5780518252601f199092019160209182019101613520565b51815160209384036101000a600019018019909216911617905285519190930192850191508083835b602083106135875780518252601f199092019160209182019101613568565b6001836020036101000a0380198251168184511680821785525050505050509050019250505060405160208183030381529060405280519060200120905092915050565b6000816040516020018082805190602001908083835b602083106136005780518252601f1990920191602091820191016135e1565b6001836020036101000a038019825116818451168082178552505050505050905001915050604051602081830303815290604052805190602001209050919050565b6000600160a060020a038216151561365957600080fd5b50600160a060020a03166000908152602091909152604090205460ff1690565b60008282018381101561368b57600080fd5b9392505050565b60008383836040516020018084805190602001908083835b602083106136c95780518252601f1990920191602091820191016136aa565b51815160209384036101000a6000190180199092169116179052600160a060020a0387166c0100000000000000000000000002919093019081528451601490910192850191508083835b602083106137325780518252601f199092019160209182019101613713565b6001836020036101000a03801982511681845116808217855250505050505090500193505050506040516020818303038152906040528051906020012090509392505050565b60008383836040516020018084805190602001908083835b602083106137af5780518252601f199092019160209182019101613790565b51815160001960209485036101000a01908116901991909116179052920185815284519083019285019150808383602083106137325780518252601f199092019160209182019101613713565b60008383836040516020018084805190602001908083835b602083106138335780518252601f199092019160209182019101613814565b6001836020036101000a03801982511681845116808217855250505050505090500183600160a060020a0316600160a060020a03166c0100000000000000000000000002815260140182815260200193505050506040516020818303038152906040528051906020012090509392505050565b6138b760018263ffffffff613a3f16565b604051600160a060020a038216907fcd265ebaf09df2871cc7bd4133404a235ba12eff2041bb89d9c714a2621c7c7e90600090a250565b6138ff60018263ffffffff613a8b16565b604051600160a060020a038216907f6719d08c1888103bea251a4ed56406bd0c3e69723c8a1686e017e7bbe159b6f890600090a250565b60008282111561394557600080fd5b50900390565b6000600260019054906101000a9004600160a060020a0316600160a060020a03166321f8a72161098e60408051908101604052806008815260200160c460020a6706d656469614d61702815250856040805190810160405280600a8152602001600080516020613afa833981519152815250613778565b600160a060020a03811615156139d757600080fd5b60008054604051600160a060020a03808516939216917f8be0079c531659141344cd1fd0a4f28419497f9722a3daafe3b4186f6b6457e091a36000805473ffffffffffffffffffffffffffffffffffffffff1916600160a060020a0392909216919091179055565b600160a060020a0381161515613a5457600080fd5b613a5e8282613642565b1515613a6957600080fd5b600160a060020a0316600090815260209190915260409020805460ff19169055565b600160a060020a0381161515613aa057600080fd5b613aaa8282613642565b15613ab457600080fd5b600160a060020a0316600090815260209190915260409020805460ff1916600117905556fe757365724d65646961496e6465780000000000000000000000000000000000006d656469614f776e657200000000000000000000000000000000000000000000757365724d656469614d61700000000000000000000000000000000000000000757365724d65646961436f756e740000000000000000000000000000000000006d65646961486173684d61700000000000000000000000000000000000000000746f74616c46696c657300000000000000000000000000000000000000000000a165627a7a72305820f0fb918f59a9a60d7172fb5e80f430c19f5e1b883f11c729148e8e0a1fddc41f0029608060405234801561001057600080fd5b5060008054600160a060020a0319163317808255604051600160a060020a039190911691907f8be0079c531659141344cd1fd0a4f28419497f9722a3daafe3b4186f6b6457e0908290a3610cce806100696000396000f3fe6080604052600436106101275763ffffffff7c01000000000000000000000000000000000000000000000000000000006000350416630e14a376811461012c57806321f8a721146101585780632c62ff2d1461019e5780632e28d084146101c85780633848207a146102825780633e49bed0146102c0578063616b59f6146102f05780636e8995501461031a578063715018a6146103d45780638c160095146103e95780638da5cb5b146104135780638f32d59b14610428578063986e791a1461043d578063bd02d0f5146104dc578063c031a18014610518578063ca446dd914610542578063dc97d9621461057b578063e2a4853a146105a5578063e2b202bf146105d5578063f2fde38b146105ff578063f6bb3cc414610632578063f8715b3e1461065c575b600080fd5b34801561013857600080fd5b506101566004803603602081101561014f57600080fd5b503561068e565b005b34801561016457600080fd5b506101826004803603602081101561017b57600080fd5b50356106cc565b60408051600160a060020a039092168252519081900360200190f35b3480156101aa57600080fd5b50610156600480360360208110156101c157600080fd5b50356106fd565b3480156101d457600080fd5b50610156600480360360408110156101eb57600080fd5b8135919081019060408101602082013564010000000081111561020d57600080fd5b82018360208201111561021f57600080fd5b8035906020019184600183028401116401000000008311171561024157600080fd5b91908080601f016020809104026020016040519081016040528093929190818152602001838380828437600092019190915250929550610728945050505050565b34801561028e57600080fd5b506102ac600480360360208110156102a557600080fd5b503561075f565b604080519115158252519081900360200190f35b3480156102cc57600080fd5b50610156600480360360408110156102e357600080fd5b508035906020013561078a565b3480156102fc57600080fd5b506101566004803603602081101561031357600080fd5b50356107af565b34801561032657600080fd5b506101566004803603604081101561033d57600080fd5b8135919081019060408101602082013564010000000081111561035f57600080fd5b82018360208201111561037157600080fd5b8035906020019184600183028401116401000000008311171561039357600080fd5b91908080601f0160208091040260200160405190810160405280939291908181526020018383808284376000920191909152509295506107dc945050505050565b3480156103e057600080fd5b5061015661080e565b3480156103f557600080fd5b506101566004803603602081101561040c57600080fd5b5035610878565b34801561041f57600080fd5b5061018261089c565b34801561043457600080fd5b506102ac6108ac565b34801561044957600080fd5b506104676004803603602081101561046057600080fd5b50356108bd565b6040805160208082528351818301528351919283929083019185019080838360005b838110156104a1578181015183820152602001610489565b50505050905090810190601f1680156104ce5780820380516001836020036101000a031916815260200191505b509250505060405180910390f35b3480156104e857600080fd5b50610506600480360360208110156104ff57600080fd5b5035610971565b60408051918252519081900360200190f35b34801561052457600080fd5b506104676004803603602081101561053b57600080fd5b5035610999565b34801561054e57600080fd5b506101566004803603604081101561056557600080fd5b5080359060200135600160a060020a0316610a15565b34801561058757600080fd5b506105066004803603602081101561059e57600080fd5b5035610a63565b3480156105b157600080fd5b50610156600480360360408110156105c857600080fd5b5080359060200135610a8b565b3480156105e157600080fd5b50610156600480360360208110156105f857600080fd5b5035610ab0565b34801561060b57600080fd5b506101566004803603602081101561062257600080fd5b5035600160a060020a0316610ad4565b34801561063e57600080fd5b506101566004803603602081101561065557600080fd5b5035610af0565b34801561066857600080fd5b506101566004803603604081101561067f57600080fd5b50803590602001351515610b1a565b6106966108ac565b15156106a157600080fd5b6000908152600560205260409020805473ffffffffffffffffffffffffffffffffffffffff19169055565b60006106d66108ac565b15156106e157600080fd5b50600090815260056020526040902054600160a060020a031690565b6107056108ac565b151561071057600080fd5b6000908152600260205260409020805460ff19169055565b6107306108ac565b151561073b57600080fd5b6000828152600160209081526040909120825161075a92840190610bca565b505050565b60006107696108ac565b151561077457600080fd5b5060009081526002602052604090205460ff1690565b6107926108ac565b151561079d57600080fd5b60009182526003602052604090912055565b6107b76108ac565b15156107c257600080fd5b60008181526001602052604081206107d991610c48565b50565b6107e46108ac565b15156107ef57600080fd5b6000828152600660209081526040909120825161075a92840190610bca565b6108166108ac565b151561082157600080fd5b60008054604051600160a060020a03909116907f8be0079c531659141344cd1fd0a4f28419497f9722a3daafe3b4186f6b6457e0908390a36000805473ffffffffffffffffffffffffffffffffffffffff19169055565b6108806108ac565b151561088b57600080fd5b600090815260036020526040812055565b600054600160a060020a03165b90565b600054600160a060020a0316331490565b60606108c76108ac565b15156108d257600080fd5b60008281526006602090815260409182902080548351601f6002600019610100600186161502019093169290920491820184900484028101840190945280845290918301828280156109655780601f1061093a57610100808354040283529160200191610965565b820191906000526020600020905b81548152906001019060200180831161094857829003601f168201915b50505050509050919050565b600061097b6108ac565b151561098657600080fd5b5060009081526004602052604090205490565b60606109a36108ac565b15156109ae57600080fd5b60008281526001602081815260409283902080548451600294821615610100026000190190911693909304601f81018390048302840183019094528383529192908301828280156109655780601f1061093a57610100808354040283529160200191610965565b610a1d6108ac565b1515610a2857600080fd5b600091825260056020526040909120805473ffffffffffffffffffffffffffffffffffffffff1916600160a060020a03909216919091179055565b6000610a6d6108ac565b1515610a7857600080fd5b5060009081526003602052604090205490565b610a936108ac565b1515610a9e57600080fd5b60009182526004602052604090912055565b610ab86108ac565b1515610ac357600080fd5b600090815260046020526040812055565b610adc6108ac565b1515610ae757600080fd5b6107d981610b4d565b610af86108ac565b1515610b0357600080fd5b60008181526006602052604081206107d991610c48565b610b226108ac565b1515610b2d57600080fd5b600091825260026020526040909120805460ff1916911515919091179055565b600160a060020a0381161515610b6257600080fd5b60008054604051600160a060020a03808516939216917f8be0079c531659141344cd1fd0a4f28419497f9722a3daafe3b4186f6b6457e091a36000805473ffffffffffffffffffffffffffffffffffffffff1916600160a060020a0392909216919091179055565b828054600181600116156101000203166002900490600052602060002090601f016020900481019282601f10610c0b57805160ff1916838001178555610c38565b82800160010185558215610c38579182015b82811115610c38578251825591602001919060010190610c1d565b50610c44929150610c88565b5090565b50805460018160011615610100020316600290046000825580601f10610c6e57506107d9565b601f0160209004906000526020600020908101906107d991905b6108a991905b80821115610c445760008155600101610c8e56fea165627a7a7230582025d24d89e65f27a41c22f4df372063436e39b7a7fb9cd3429d0e35c966b1e85c0029",
  "source": "pragma solidity ^0.5.0;\r\n\r\n\r\nimport \"openzeppelin-solidity/contracts/math/SafeMath.sol\";\r\nimport \"openzeppelin-solidity/contracts/ownership/Ownable.sol\";\r\nimport \"openzeppelin-solidity/contracts/lifecycle/Pausable.sol\";\r\nimport \"./external/EternalStorage.sol\";\r\n\r\n\r\n/** @title Media Manager contract using Proof of Existence to validate ownership.\r\n  * This contract uses zeppelin's Ownable and Pausable imports to manage owner capabilities\r\n  * and pause the sensitive functionalities of the contract when necessary.\r\n  *\r\n  * The information stored using this contract is put into a EternalStorage variable\r\n  * to allow upgradeability of the contract while preserving state data following\r\n  * zeppelinos guidelines about EternalStorage.\r\n  */\r\ncontract MediaManager is Ownable, Pausable{\r\n    // Type declarations of the contract\r\n    using SafeMath for uint;\r\n    \r\n    // State variables of the contract\r\n    EternalStorage internal db;\r\n\r\n    // Events of the contract\r\n    event MediaAdded(\r\n        string mediaHash, \r\n        uint indexed mediaIndex, \r\n        address indexed mediaOwner\r\n    );\r\n    event MediaDeleted(\r\n        string mediaHash, \r\n        uint indexed mediaIndex, \r\n        address indexed mediaOwner\r\n    );\r\n    event ContractTransferred(address indexed oldAddress, address indexed newAddress);\r\n\r\n    // Contract's constructor\r\n    constructor() public {\r\n        Ownable(msg.sender);\r\n        db = new EternalStorage();\r\n        // initialize mapping indexes to use while saving or retrieving proof data\r\n        // from EternalStorage.\r\n        // Store index of last added media. \r\n        // (set at 0 because no media exists when first instantiated)\r\n        // db.setUint(getHashIndex(\"lastMediaIndex\"), 0);\r\n    }\r\n\r\n    /** @dev Fallback to reject any ether sent to contract\r\n    */\r\n    function () external { }\r\n\r\n    // Public functions\r\n    /** @dev Give the contract proxy to a new contract by allowing it to manipulate storage.\r\n    * This function execution was marked to be only possible when the contract's state\r\n    * machine is in paused state.  That means that access to sensitive functionality in the\r\n    * contract should be paused prior to call this function.\r\n    * @param newAddress the address of new contract proxy deployed.\r\n    * @return success If the transaction is processed successfully\r\n    */\r\n    function upgradeContract(address newAddress)\r\n        public \r\n        onlyOwner \r\n        whenPaused \r\n        returns (bool success) \r\n    {\r\n        require(newAddress != address(0), \"should provide a valid address to upgrade.\");        \r\n        // Emit the corresponding event\r\n        emit ContractTransferred(owner(), newAddress);\r\n        // Transfer ownership of the state data to the new address\r\n        db.transferOwnership(newAddress);\r\n\r\n        return true;\r\n    }\r\n\r\n    // Internal functions\r\n    /** @dev Computes the hash to use as index to store a value in the .\r\n    * @param mappingName the name to use if we want to have some structured\r\n    * information pattern like struct while saving data in the EternalStorage.\r\n    * @param index the index to use for the structured data collection index\r\n    * in the storage.\r\n    * @param varName a name to have as reference for the variable inside the\r\n    * mapping like a property of a struct in terms of reference.\r\n    * @return the hash to use as index for the corresponding mapping inside\r\n    * the EternalStorage.\r\n    */\r\n    function getHashIndex(string memory mappingName, uint index, string memory varName) \r\n        internal \r\n        pure \r\n        returns (bytes32 nHash) \r\n    {\r\n        nHash = keccak256(abi.encodePacked(mappingName, index, varName));\r\n    }\r\n\r\n    /** @dev Computes the hash to use as index to store a value in the .\r\n    * @param mappingName the name to use if we want to have some structured\r\n    * information pattern like struct while saving data in the EternalStorage.\r\n    * @param ownerAddress the owner of the resource to calculate this hash.\r\n    * @param varName a name to have as reference for the variable inside the\r\n    * mapping like a property of a struct in terms of reference.\r\n    * @return the hash to use as index for the corresponding mapping inside\r\n    * the EternalStorage.\r\n    */\r\n    function getHashIndex(\r\n        string memory mappingName, \r\n        address ownerAddress, \r\n        string memory varName\r\n    ) \r\n        internal \r\n        pure \r\n        returns (bytes32 nHash) \r\n    {\r\n        nHash = keccak256(abi.encodePacked(mappingName, ownerAddress, varName));\r\n    }\r\n\r\n    /** @dev Computes the hash to use as index to store a value in the .\r\n    * @param mappingName the name to use if we want to have some structured\r\n    * information pattern like struct while saving data in the EternalStorage.\r\n    * @param ownerAddress the owner of the resource to calculate this hash.\r\n    * @param varName a name to have as reference for the variable inside the\r\n    * mapping like a property of a struct in terms of reference.\r\n    * @return the hash to use as index for the corresponding mapping inside\r\n    * the EternalStorage.\r\n    */\r\n    function getHashIndex(string memory mappingName, address ownerAddress, uint varName) \r\n        internal \r\n        pure \r\n        returns (bytes32 nHash) \r\n    {\r\n        nHash = keccak256(abi.encodePacked(mappingName, ownerAddress, varName));\r\n    }\r\n\r\n    /** @dev Computes the hash to use as index to store a value in the .\r\n    * @param mappingName the name to use if we want to have some structured\r\n    * information pattern like struct while saving data in the EternalStorage.\r\n    * @param varName a name to have as reference for the variable inside the\r\n    * mapping like a property of a struct in terms of reference.\r\n    * @return the hash to use as index for the corresponding mapping inside\r\n    * the EternalStorage.\r\n    */\r\n    function getHashIndex(string memory mappingName, string memory varName) \r\n        internal \r\n        pure \r\n        returns (bytes32 nHash) \r\n    {\r\n        nHash = keccak256(abi.encodePacked(mappingName, varName));\r\n    }\r\n\r\n    /** @dev Computes the hash to use as index to store a value in the .\r\n    * @param mappingName the name to use if we want to have some structured\r\n    * information pattern like struct while saving data in the EternalStorage.\r\n    * @return the hash to use as index for the corresponding mapping inside\r\n    * the EternalStorage.\r\n    */\r\n    function getHashIndex(string memory mappingName) \r\n        internal \r\n        pure \r\n        returns (bytes32 nHash) \r\n    {\r\n        nHash = keccak256(abi.encodePacked(mappingName));\r\n    }\r\n\r\n    /** @dev Reads the owner of a media file in the given index from storage.\r\n    * @param mediaIndex the index id stored for the media file.\r\n    * @return the address of the owner of this media file if found.\r\n    */\r\n    function getMediaOwner(uint mediaIndex) \r\n        internal \r\n        view \r\n        returns (address mediaOwner) \r\n    {\r\n        // Get the owner address of the media\r\n        mediaOwner = db.getAddress(getHashIndex(\"mediaMap\", mediaIndex, \"mediaOwner\"));\r\n    }\r\n    \r\n    /** @dev Registers an IPFS file hash and its extra data to  the contract's storage.\r\n    * @param mediaHash the IPFS file hash to register.\r\n    * @param isVideo determines if the hash stored corresponds to a video uploaded to IPFS.\r\n    * @param title a title to give to the upload media for screening purposes.\r\n    * @param tags list of tags relevant to the uploaded media.\r\n    * @return the index of the newly added media file.\r\n    */\r\n    function addOwnedMedia(\r\n        string memory mediaHash, \r\n        bool isVideo, \r\n        string memory title, \r\n        string memory tags\r\n    ) \r\n        public \r\n        whenNotPaused() \r\n        returns (uint mediaFileIndex) \r\n    {\r\n        // The same media cannot be added twice\r\n        require(\r\n            db.getUint(getHashIndex(\"mediaHashMap\", mediaHash)) == 0, \r\n            \"Media file should not exists.\"\r\n        );\r\n\r\n        // The owner should be a valid address\r\n        require(\r\n            msg.sender != address(0),\r\n            \"The owner address must be a valid one!!!\"\r\n        ); \r\n        // Get saved media index count starting at 0 and add 1 to insert first at 1;\r\n        uint mediaIndex = db.getUint(getHashIndex(\"lastMediaIndex\")).add(1);\r\n        // Get saved media index for current caller of the method.\r\n        uint userMediaIndex = db.getUint(\r\n            getHashIndex(\"userMediaMap\", msg.sender, \"userMediaIndex\")\r\n        );\r\n        // Get the public hash that will be used as a reference for the stored\r\n        // media file instead of using the IPFS hash directly.\r\n        bytes32 hashIndex = getHashIndex(\"mediaHashMap\", mediaHash);\r\n\r\n        // Save main information aboud the media file to add\r\n        // Save wether the uploaded media is a video property.\r\n        db.setBoolean(getHashIndex(\"mediaMap\", mediaIndex, \"isVideo\"), isVideo);\r\n        // Save the associated title to the media.\r\n        db.setString(getHashIndex(\"mediaMap\", mediaIndex, \"title\"), title);\r\n        // Save the tags associated to the media.\r\n        db.setString(getHashIndex(\"mediaMap\", mediaIndex, \"tags\"), tags);\r\n        // Save the timestamp of this transaction in the mapping\r\n        db.setUint(getHashIndex(\"mediaMap\", mediaIndex, \"timestamp\"), now);\r\n        // Save the media hash obtained fro IPFS\r\n        db.setString(getHashIndex(\"mediaMap\", mediaIndex, \"mediaHash\"), mediaHash);\r\n        // Save the owner address of the media\r\n        db.setAddress(getHashIndex(\"mediaMap\", mediaIndex, \"mediaOwner\"), msg.sender);\r\n\r\n        // Save information regarding the map of users and its media files.\r\n        // Store the reference of the current media file associated with a \r\n        // key created using the users address and the current index in the map.\r\n        db.setUint(getHashIndex(\"userMediaMap\", msg.sender, userMediaIndex), mediaIndex);\r\n        db.setUint(getHashIndex(\"userMediaMapIndex\", msg.sender, mediaIndex), userMediaIndex);\r\n\r\n        // update the count of files for the current owner\r\n        db.setUint(getHashIndex(\"userMediaCount\", msg.sender, \"totalFiles\"), userMediaIndex == 0 ? 1: userMediaIndex.add(1));\r\n        // Store the index for the next media file to add in the map array.\r\n        db.setUint(\r\n            getHashIndex(\"userMediaMap\", msg.sender, \"userMediaIndex\"), \r\n            userMediaIndex.add(1)\r\n        );\r\n\r\n        // Save index information of the media hash and its current position in the maps.\r\n        // Save current media index with the hash as its key\r\n        db.setUint(hashIndex, mediaIndex);\r\n        // Update info regarding the last inserterd media index\r\n        db.setUint(getHashIndex(\"lastMediaIndex\"), mediaIndex);\r\n\r\n        // emit corresponding event\r\n        emit MediaAdded(mediaHash, mediaIndex, msg.sender);\r\n\r\n        return (mediaIndex);\r\n    }\r\n\r\n    /** @dev Deletes an IPFS file hash and its extra data of the contract's storage.\r\n    * @param mediaHash the IPFS file hash to delete.\r\n    * @return boolean value indicating that the delete operation was successsful.\r\n    */\r\n    function deleteOwnedMedia(string memory mediaHash) \r\n        public \r\n        whenNotPaused() \r\n        returns (bool mediaDeleted) \r\n    {\r\n        bytes32 hashIndex = getHashIndex(\"mediaHashMap\", mediaHash);\r\n        // Get saved media index of the media file.\r\n        uint mediaIndex = db.getUint(hashIndex);\r\n        // The media file must exists in the storage.\r\n        require(mediaIndex != 0, \"The media file to delete must exist!\");\r\n        // The owner of the media file must be the one calling this method\r\n        require(\r\n            getMediaOwner(mediaIndex) == msg.sender,\r\n            \"Only the owner of the media file can delete it!\"\r\n        );\r\n\r\n        // Get saved media index for current caller of the method.\r\n        uint userMediaIndex = db.getUint(\r\n            getHashIndex(\"userMediaMapIndex\", msg.sender, mediaIndex)\r\n        );\r\n\r\n        // Delete main information aboud the media file\r\n        // Delete is a video property.\r\n        db.deleteBool(getHashIndex(\"mediaMap\", mediaIndex, \"isVideo\"));\r\n        // Delete the associated title to the media.\r\n        db.deleteString(getHashIndex(\"mediaMap\", mediaIndex, \"title\"));\r\n        // Delete the tags associated to the media.\r\n        db.deleteString(getHashIndex(\"mediaMap\", mediaIndex, \"tags\"));\r\n        // Delete the timestamp of this transaction in the mapping\r\n        db.deleteUint(getHashIndex(\"mediaMap\", mediaIndex, \"timestamp\"));\r\n        // Delete the media hash obtained fro IPFS\r\n        db.deleteString(getHashIndex(\"mediaMap\", mediaIndex, \"mediaHash\"));\r\n        // Delete the owner address of the media\r\n        db.deleteAddress(getHashIndex(\"mediaMap\", mediaIndex, \"mediaOwner\"));\r\n\r\n        // delete information regarding the map of users and its media files.\r\n        // delete the reference of the current media file associated with a \r\n        // key created using the users address and the current index in the map.\r\n        db.deleteUint(getHashIndex(\"userMediaMap\", msg.sender, userMediaIndex));\r\n        // delete current mediaIndex associated with usersMedia array index\r\n        db.deleteUint(getHashIndex(\"userMediaMapIndex\", msg.sender, mediaIndex));\r\n        // Delete current media index with the hash as its key\r\n        db.deleteUint(hashIndex);\r\n        // update the count of files for the current owner\r\n        uint currCount = db.getUint(getHashIndex(\"userMediaCount\", msg.sender, \"totalFiles\"));\r\n        db.setUint(getHashIndex(\"userMediaCount\", msg.sender, \"totalFiles\"), currCount.sub(1));\r\n\r\n        // emit corresponding event\r\n        emit MediaDeleted(mediaHash, mediaIndex, msg.sender);\r\n        mediaDeleted = true;\r\n\r\n        return mediaDeleted;\r\n    }    \r\n\r\n    /** @dev Returns all the information stored about the media file in the corresponding\r\n    * index sent as parameter.\r\n    * @param mediaIndex - index of registered media file in the storage.\r\n    * @return the media file is a video (isVideo).\r\n    * @return associated title of the media file (title).\r\n    * @return associated tags of the media file (tags).\r\n    * @return the timestamp when media file was saved in the blockchain.\r\n    * @return the media file hash obtained fro IPFS.\r\n    * @return the address of the owner of this media file.\r\n    */\r\n    function getMedia(uint mediaIndex) public view returns (\r\n        bool isVideo,\r\n        string memory title,\r\n        string memory tags,\r\n        uint timestamp,\r\n        string memory mediaHash,\r\n        address mediaOwner\r\n    ) {\r\n        require(mediaIndex > 0, \"Media index must be greater than 0.\");\r\n        // Get the owner address of the media\r\n        mediaOwner = db.getAddress(getHashIndex(\"mediaMap\", mediaIndex, \"mediaOwner\"));\r\n        require(\r\n            mediaOwner != address(0),\r\n            \"Media file not found or it's not assigned to the right owner.\"\r\n        );\r\n        // Get information aboud the media file added\r\n        // Get is a video property.\r\n        isVideo = db.getBoolean(getHashIndex(\"mediaMap\", mediaIndex, \"isVideo\"));\r\n        // Get the associated title to the media.\r\n        title = db.getString(getHashIndex(\"mediaMap\", mediaIndex, \"title\"));\r\n        // Get the tags associated to the media.\r\n        tags = db.getString(getHashIndex(\"mediaMap\", mediaIndex, \"tags\"));\r\n        // Get the timestamp of this transaction in the mapping\r\n        timestamp = db.getUint(getHashIndex(\"mediaMap\", mediaIndex, \"timestamp\"));\r\n        // Get the media hash obtained fro IPFS\r\n        mediaHash = db.getString(getHashIndex(\"mediaMap\", mediaIndex, \"mediaHash\"));\r\n        \r\n\r\n        return (isVideo, title, tags, timestamp, mediaHash, mediaOwner);\r\n    }\r\n\r\n    /** @dev Returns all the information stored about a media file given a media owner and \r\n    * the index of the media file in user's media array.\r\n    * @param userMediaIndex - Index of saved media file in user's media array.\r\n    * @return the media file is a video (isVideo).\r\n    * @return associated title of the media file (title).\r\n    * @return associated tags of the media file.\r\n    * @return the timestamp when media file was saved in the blockchain.\r\n    * @return the media file hash obtained fro IPFS.\r\n    * @return the address of the owner of this media file.\r\n    */\r\n    function getUserMedia(uint userMediaIndex) public view returns (\r\n        bool isVideo,\r\n        string memory title,\r\n        string memory tags,\r\n        uint timestamp,\r\n        string memory mediaHash,\r\n        address mediaOwner\r\n    ) {\r\n        // Get the count of files added by the user\r\n        uint userAddedCount = db.getUint(getHashIndex(\"userMediaMap\", msg.sender, \"userMediaIndex\"));\r\n\r\n        require(userMediaIndex.sub(1) <= userAddedCount, \"Media index not found for this owner.\");\r\n        // Get the media index associated form the users's media array\r\n        uint _mediaIndex = db.getUint(getHashIndex(\"userMediaMap\", msg.sender, userMediaIndex));\r\n        // verify the index and check for overflow/underflow.        \r\n\r\n        // return the associated media file.\r\n        return getMedia(_mediaIndex);\r\n    }\r\n\r\n    /** @dev Shortcut utility function to check wether a media file hash has been inserted\r\n    * in the storage using the IPFS media file hash to check for existence.\r\n    * @param mediaHash the IPFS file hash to verify.\r\n    * @return boolean indicating if media file exists.\r\n    */\r\n    function checkIfExists(string memory mediaHash) public view returns (bool mediaExists) {\r\n        mediaExists = db.getUint(getHashIndex(\"mediaHashMap\", mediaHash)) > 0;\r\n    }\r\n\r\n    /** @dev Shortcut utility function to read a media file's index by its hash.\r\n    * @param mediaHash the IPFS media file hash registered.\r\n    * @return uint media file index if exists or zero (0).\r\n    */\r\n    function getMediaIndexByHash(string memory mediaHash) public view returns (uint mediaIndex) {\r\n        mediaIndex = db.getUint(getHashIndex(\"mediaHashMap\", mediaHash));\r\n    }\r\n\r\n     /** @dev Shortcut utility function to get all the information of a given media file\r\n    * by using its media hash to obtain the data.\r\n    * @param mediaFileHash the IPFS media file hash saved.\r\n    * @return the media file is a video (isVideo).\r\n    * @return associated title of the media file (title).\r\n    * @return associated tags of the media file.\r\n    * @return the timestamp when media file was saved in the blockchain.\r\n    * @return the media file hash obtained fro IPFS.\r\n    * @return the address of the owner of this media file.\r\n    */\r\n    function getMediaByMediaHash(string memory mediaFileHash) public view returns (\r\n        bool isVideo,\r\n        string memory title,\r\n        string memory tags,\r\n        uint timestamp,\r\n        string memory mediaHash,\r\n        address mediaOwner\r\n    ) {\r\n        return getMedia(getMediaIndexByHash(mediaFileHash));\r\n    }\r\n\r\n    /** @dev Reads the last inserted media file index from storage.\r\n    * @return Last inserted media file index.\r\n    */\r\n    function lastMediaIndex() public view returns (uint) {\r\n        return db.getUint(getHashIndex(\"lastMediaIndex\"));\r\n    }\r\n    \r\n    function getUserMediaIndex() public view returns (uint totalAddedFiles, uint currentFilesCount) {\r\n        return (\r\n            db.getUint(getHashIndex(\"userMediaMap\", msg.sender, \"userMediaIndex\")),\r\n            db.getUint(getHashIndex(\"userMediaCount\", msg.sender, \"totalFiles\"))\r\n        );\r\n    }\r\n}\r\n",
  "sourcePath": "/mnt/d/Documents/GitHub/consensys-eth-dev-bc-final-project-poa/contracts/MediaManager.sol",
  "compiler": {
    "name": "solc",
    "version": "0.5.0+commit.1d4f565a.Emscripten.clang"
  },
  "schemaVersion": "3.0.1",
  "updatedAt": "2019-01-21T20:02:12.640Z",
  "devdoc": {
    "methods": {
      "addOwnedMedia(string,bool,string,string)": {
        "details": "Registers an IPFS file hash and its extra data to  the contract's storage.\r",
        "params": {
          "isVideo": "determines if the hash stored corresponds to a video uploaded to IPFS.\r",
          "mediaHash": "the IPFS file hash to register.\r",
          "tags": "list of tags relevant to the uploaded media.\r",
          "title": "a title to give to the upload media for screening purposes.\r"
        },
        "return": "the index of the newly added media file.\r"
      },
      "checkIfExists(string)": {
        "details": "Shortcut utility function to check wether a media file hash has been inserted\r in the storage using the IPFS media file hash to check for existence.\r",
        "params": {
          "mediaHash": "the IPFS file hash to verify.\r"
        },
        "return": "boolean indicating if media file exists.\r"
      },
      "deleteOwnedMedia(string)": {
        "details": "Deletes an IPFS file hash and its extra data of the contract's storage.\r",
        "params": {
          "mediaHash": "the IPFS file hash to delete.\r"
        },
        "return": "boolean value indicating that the delete operation was successsful.\r"
      },
      "getMedia(uint256)": {
        "details": "Returns all the information stored about the media file in the corresponding\r index sent as parameter.\r",
        "params": {
          "mediaIndex": "- index of registered media file in the storage.\r"
        },
        "return": "the media file is a video (isVideo).\rassociated title of the media file (title).\rassociated tags of the media file (tags).\rthe timestamp when media file was saved in the blockchain.\rthe media file hash obtained fro IPFS.\rthe address of the owner of this media file.\r"
      },
      "getMediaByMediaHash(string)": {
        "details": "Shortcut utility function to get all the information of a given media file\r by using its media hash to obtain the data.\r",
        "params": {
          "mediaFileHash": "the IPFS media file hash saved.\r"
        },
        "return": "the media file is a video (isVideo).\rassociated title of the media file (title).\rassociated tags of the media file.\rthe timestamp when media file was saved in the blockchain.\rthe media file hash obtained fro IPFS.\rthe address of the owner of this media file.\r"
      },
      "getMediaIndexByHash(string)": {
        "details": "Shortcut utility function to read a media file's index by its hash.\r",
        "params": {
          "mediaHash": "the IPFS media file hash registered.\r"
        },
        "return": "uint media file index if exists or zero (0).\r"
      },
      "getUserMedia(uint256)": {
        "details": "Returns all the information stored about a media file given a media owner and \r the index of the media file in user's media array.\r",
        "params": {
          "userMediaIndex": "- Index of saved media file in user's media array.\r"
        },
        "return": "the media file is a video (isVideo).\rassociated title of the media file (title).\rassociated tags of the media file.\rthe timestamp when media file was saved in the blockchain.\rthe media file hash obtained fro IPFS.\rthe address of the owner of this media file.\r"
      },
      "isOwner()": {
        "return": "true if `msg.sender` is the owner of the contract."
      },
      "lastMediaIndex()": {
        "details": "Reads the last inserted media file index from storage.\r",
        "return": "Last inserted media file index.\r"
      },
      "owner()": {
        "return": "the address of the owner."
      },
      "pause()": {
        "details": "called by the owner to pause, triggers stopped state"
      },
      "paused()": {
        "return": "true if the contract is paused, false otherwise."
      },
      "renounceOwnership()": {
        "details": "Allows the current owner to relinquish control of the contract."
      },
      "transferOwnership(address)": {
        "details": "Allows the current owner to transfer control of the contract to a newOwner.",
        "params": {
          "newOwner": "The address to transfer ownership to."
        }
      },
      "unpause()": {
        "details": "called by the owner to unpause, returns to normal state"
      },
      "upgradeContract(address)": {
        "details": "Give the contract proxy to a new contract by allowing it to manipulate storage.\r This function execution was marked to be only possible when the contract's state\r machine is in paused state.  That means that access to sensitive functionality in the\r contract should be paused prior to call this function.\r",
        "params": {
          "newAddress": "the address of new contract proxy deployed.\r"
        },
        "return": "success If the transaction is processed successfully\r"
      }
    },
    "title": "Media Manager contract using Proof of Existence to validate ownership.\r This contract uses zeppelin's Ownable and Pausable imports to manage owner capabilities\r and pause the sensitive functionalities of the contract when necessary.\r   * The information stored using this contract is put into a EternalStorage variable\r to allow upgradeability of the contract while preserving state data following\r zeppelinos guidelines about EternalStorage.\r"
  },
  "userdoc": {
    "methods": {
      "renounceOwnership()": {
        "notice": "Renouncing to ownership will leave the contract without an owner. It will not be possible to call the functions with the `onlyOwner` modifier anymore."
      }
    }
  }
}