{
  "contractName": "MediaManager",
  "abi": [
    {
      "constant": false,
      "inputs": [],
      "name": "unpause",
      "outputs": [],
      "payable": false,
      "stateMutability": "nonpayable",
      "type": "function",
      "signature": "0x3f4ba83a"
    },
    {
      "constant": true,
      "inputs": [
        {
          "name": "account",
          "type": "address"
        }
      ],
      "name": "isPauser",
      "outputs": [
        {
          "name": "",
          "type": "bool"
        }
      ],
      "payable": false,
      "stateMutability": "view",
      "type": "function",
      "signature": "0x46fbf68e"
    },
    {
      "constant": true,
      "inputs": [],
      "name": "paused",
      "outputs": [
        {
          "name": "",
          "type": "bool"
        }
      ],
      "payable": false,
      "stateMutability": "view",
      "type": "function",
      "signature": "0x5c975abb"
    },
    {
      "constant": false,
      "inputs": [],
      "name": "renouncePauser",
      "outputs": [],
      "payable": false,
      "stateMutability": "nonpayable",
      "type": "function",
      "signature": "0x6ef8d66d"
    },
    {
      "constant": false,
      "inputs": [],
      "name": "renounceOwnership",
      "outputs": [],
      "payable": false,
      "stateMutability": "nonpayable",
      "type": "function",
      "signature": "0x715018a6"
    },
    {
      "constant": false,
      "inputs": [
        {
          "name": "account",
          "type": "address"
        }
      ],
      "name": "addPauser",
      "outputs": [],
      "payable": false,
      "stateMutability": "nonpayable",
      "type": "function",
      "signature": "0x82dc1ec4"
    },
    {
      "constant": false,
      "inputs": [],
      "name": "pause",
      "outputs": [],
      "payable": false,
      "stateMutability": "nonpayable",
      "type": "function",
      "signature": "0x8456cb59"
    },
    {
      "constant": true,
      "inputs": [],
      "name": "owner",
      "outputs": [
        {
          "name": "",
          "type": "address"
        }
      ],
      "payable": false,
      "stateMutability": "view",
      "type": "function",
      "signature": "0x8da5cb5b"
    },
    {
      "constant": true,
      "inputs": [],
      "name": "isOwner",
      "outputs": [
        {
          "name": "",
          "type": "bool"
        }
      ],
      "payable": false,
      "stateMutability": "view",
      "type": "function",
      "signature": "0x8f32d59b"
    },
    {
      "constant": false,
      "inputs": [
        {
          "name": "newOwner",
          "type": "address"
        }
      ],
      "name": "transferOwnership",
      "outputs": [],
      "payable": false,
      "stateMutability": "nonpayable",
      "type": "function",
      "signature": "0xf2fde38b"
    },
    {
      "inputs": [],
      "payable": false,
      "stateMutability": "nonpayable",
      "type": "constructor",
      "signature": "constructor"
    },
    {
      "payable": false,
      "stateMutability": "nonpayable",
      "type": "fallback"
    },
    {
      "anonymous": false,
      "inputs": [
        {
          "indexed": true,
          "name": "publicMediaHash",
          "type": "bytes32"
        },
        {
          "indexed": true,
          "name": "mediaIndex",
          "type": "uint256"
        },
        {
          "indexed": true,
          "name": "mediaOwner",
          "type": "address"
        }
      ],
      "name": "MediaAdded",
      "type": "event",
      "signature": "0xa2a0b7c18b441acd36cf9cb3799959a9bb31d4473f21cd98eb8d03a26892f8aa"
    },
    {
      "anonymous": false,
      "inputs": [
        {
          "indexed": true,
          "name": "publicMediaHash",
          "type": "bytes32"
        },
        {
          "indexed": true,
          "name": "mediaIndex",
          "type": "uint256"
        },
        {
          "indexed": true,
          "name": "mediaOwner",
          "type": "address"
        }
      ],
      "name": "MediaDeleted",
      "type": "event",
      "signature": "0x46217d4902fffae2bd41ced10c21d9b91ec9c47a01dd44a4d7d9991c435a579c"
    },
    {
      "anonymous": false,
      "inputs": [
        {
          "indexed": true,
          "name": "oldAddress",
          "type": "address"
        },
        {
          "indexed": true,
          "name": "newAddress",
          "type": "address"
        }
      ],
      "name": "ContractTransfered",
      "type": "event",
      "signature": "0x2c9bf8f5bb4744a270a43e5fcd368bf073123a1ffba6ff0b39276bf5dd20e6a4"
    },
    {
      "anonymous": false,
      "inputs": [
        {
          "indexed": false,
          "name": "account",
          "type": "address"
        }
      ],
      "name": "Paused",
      "type": "event",
      "signature": "0x62e78cea01bee320cd4e420270b5ea74000d11b0c9f74754ebdbfc544b05a258"
    },
    {
      "anonymous": false,
      "inputs": [
        {
          "indexed": false,
          "name": "account",
          "type": "address"
        }
      ],
      "name": "Unpaused",
      "type": "event",
      "signature": "0x5db9ee0a495bf2e6ff9c91a7834c1ba4fdd244a5e8aa4e537bd38aeae4b073aa"
    },
    {
      "anonymous": false,
      "inputs": [
        {
          "indexed": true,
          "name": "account",
          "type": "address"
        }
      ],
      "name": "PauserAdded",
      "type": "event",
      "signature": "0x6719d08c1888103bea251a4ed56406bd0c3e69723c8a1686e017e7bbe159b6f8"
    },
    {
      "anonymous": false,
      "inputs": [
        {
          "indexed": true,
          "name": "account",
          "type": "address"
        }
      ],
      "name": "PauserRemoved",
      "type": "event",
      "signature": "0xcd265ebaf09df2871cc7bd4133404a235ba12eff2041bb89d9c714a2621c7c7e"
    },
    {
      "anonymous": false,
      "inputs": [
        {
          "indexed": true,
          "name": "previousOwner",
          "type": "address"
        },
        {
          "indexed": true,
          "name": "newOwner",
          "type": "address"
        }
      ],
      "name": "OwnershipTransferred",
      "type": "event",
      "signature": "0x8be0079c531659141344cd1fd0a4f28419497f9722a3daafe3b4186f6b6457e0"
    },
    {
      "constant": false,
      "inputs": [
        {
          "name": "newAddress",
          "type": "address"
        }
      ],
      "name": "upgradeContract",
      "outputs": [
        {
          "name": "success",
          "type": "bool"
        }
      ],
      "payable": false,
      "stateMutability": "nonpayable",
      "type": "function",
      "signature": "0xeb2c0223"
    },
    {
      "constant": false,
      "inputs": [
        {
          "name": "mediaHash",
          "type": "string"
        },
        {
          "name": "isVideo",
          "type": "bool"
        },
        {
          "name": "title",
          "type": "string"
        },
        {
          "name": "description",
          "type": "string"
        }
      ],
      "name": "addOwnedMedia",
      "outputs": [
        {
          "name": "publicHash",
          "type": "bytes32"
        }
      ],
      "payable": false,
      "stateMutability": "nonpayable",
      "type": "function",
      "signature": "0x6822e93d"
    },
    {
      "constant": false,
      "inputs": [
        {
          "name": "publicHash",
          "type": "bytes32"
        }
      ],
      "name": "deleteOwnedMedia",
      "outputs": [
        {
          "name": "mediaDeleted",
          "type": "bool"
        }
      ],
      "payable": false,
      "stateMutability": "nonpayable",
      "type": "function",
      "signature": "0x57ebcc75"
    },
    {
      "constant": true,
      "inputs": [
        {
          "name": "mediaIndex",
          "type": "uint256"
        }
      ],
      "name": "getMedia",
      "outputs": [
        {
          "name": "isVideo",
          "type": "bool"
        },
        {
          "name": "title",
          "type": "string"
        },
        {
          "name": "description",
          "type": "string"
        },
        {
          "name": "timestamp",
          "type": "uint256"
        },
        {
          "name": "mediaHash",
          "type": "string"
        },
        {
          "name": "mediaOwner",
          "type": "address"
        }
      ],
      "payable": false,
      "stateMutability": "view",
      "type": "function",
      "signature": "0xdfa2ed6a"
    },
    {
      "constant": true,
      "inputs": [
        {
          "name": "mediaOwner",
          "type": "address"
        },
        {
          "name": "mediaIndex",
          "type": "uint256"
        }
      ],
      "name": "getUserMedia",
      "outputs": [
        {
          "name": "isVideo",
          "type": "bool"
        },
        {
          "name": "title",
          "type": "string"
        },
        {
          "name": "description",
          "type": "string"
        },
        {
          "name": "timestamp",
          "type": "uint256"
        },
        {
          "name": "mediaHash",
          "type": "string"
        },
        {
          "name": "owner",
          "type": "address"
        }
      ],
      "payable": false,
      "stateMutability": "view",
      "type": "function",
      "signature": "0x971a416f"
    },
    {
      "constant": true,
      "inputs": [
        {
          "name": "mediaHash",
          "type": "string"
        }
      ],
      "name": "checkIfExists",
      "outputs": [
        {
          "name": "mediaExists",
          "type": "bool"
        }
      ],
      "payable": false,
      "stateMutability": "view",
      "type": "function",
      "signature": "0xab0a59a8"
    },
    {
      "constant": true,
      "inputs": [
        {
          "name": "mediaHash",
          "type": "string"
        }
      ],
      "name": "getMediaIndexByHash",
      "outputs": [
        {
          "name": "mediaIndex",
          "type": "uint256"
        }
      ],
      "payable": false,
      "stateMutability": "view",
      "type": "function",
      "signature": "0x0a46d881"
    },
    {
      "constant": true,
      "inputs": [
        {
          "name": "publicHash",
          "type": "bytes32"
        }
      ],
      "name": "checkIfExistsByPublicHash",
      "outputs": [
        {
          "name": "mediaExists",
          "type": "bool"
        }
      ],
      "payable": false,
      "stateMutability": "view",
      "type": "function",
      "signature": "0x5e384368"
    },
    {
      "constant": true,
      "inputs": [
        {
          "name": "publicHash",
          "type": "bytes32"
        }
      ],
      "name": "getMediaIndexByPublicHash",
      "outputs": [
        {
          "name": "mediaIndex",
          "type": "uint256"
        }
      ],
      "payable": false,
      "stateMutability": "view",
      "type": "function",
      "signature": "0xa314a148"
    },
    {
      "constant": true,
      "inputs": [
        {
          "name": "publicHash",
          "type": "bytes32"
        }
      ],
      "name": "getMediaByPublicHash",
      "outputs": [
        {
          "name": "isVideo",
          "type": "bool"
        },
        {
          "name": "title",
          "type": "string"
        },
        {
          "name": "description",
          "type": "string"
        },
        {
          "name": "timestamp",
          "type": "uint256"
        },
        {
          "name": "mediaHash",
          "type": "string"
        },
        {
          "name": "mediaOwner",
          "type": "address"
        }
      ],
      "payable": false,
      "stateMutability": "view",
      "type": "function",
      "signature": "0x65145440"
    },
    {
      "constant": true,
      "inputs": [],
      "name": "lastMediaIndex",
      "outputs": [
        {
          "name": "",
          "type": "uint256"
        }
      ],
      "payable": false,
      "stateMutability": "view",
      "type": "function",
      "signature": "0x30393192"
    }
  ],
  "bytecode": "0x60806040523480156200001157600080fd5b50336000806101000a81548173ffffffffffffffffffffffffffffffffffffffff021916908373ffffffffffffffffffffffffffffffffffffffff1602179055506000809054906101000a900473ffffffffffffffffffffffffffffffffffffffff1673ffffffffffffffffffffffffffffffffffffffff16600073ffffffffffffffffffffffffffffffffffffffff167f8be0079c531659141344cd1fd0a4f28419497f9722a3daafe3b4186f6b6457e060405160405180910390a3620000e83362000273640100000000026401000000009004565b6000600260006101000a81548160ff0219169083151502179055506200010d620004b4565b604051809103906000f0801580156200012a573d6000803e3d6000fd5b50600260016101000a81548173ffffffffffffffffffffffffffffffffffffffff021916908373ffffffffffffffffffffffffffffffffffffffff160217905550600260019054906101000a900473ffffffffffffffffffffffffffffffffffffffff1673ffffffffffffffffffffffffffffffffffffffff1663e2a4853a620001f86040805190810160405280600e81526020017f6c6173744d65646961496e646578000000000000000000000000000000000000815250620002dd640100000000026401000000009004565b60006040518363ffffffff167c01000000000000000000000000000000000000000000000000000000000281526004018083815260200182815260200192505050600060405180830381600087803b1580156200025457600080fd5b505af115801562000269573d6000803e3d6000fd5b50505050620004c5565b620002978160016200035c6401000000000262004d0d179091906401000000009004565b8073ffffffffffffffffffffffffffffffffffffffff167f6719d08c1888103bea251a4ed56406bd0c3e69723c8a1686e017e7bbe159b6f860405160405180910390a250565b6000816040516020018082805190602001908083835b6020831015156200031a5780518252602082019150602081019050602083039250620002f3565b6001836020036101000a038019825116818451168082178552505050505050905001915050604051602081830303815290604052805190602001209050919050565b600073ffffffffffffffffffffffffffffffffffffffff168173ffffffffffffffffffffffffffffffffffffffff16141515156200039957600080fd5b620003b482826200041f640100000000026401000000009004565b151515620003c157600080fd5b60018260000160008373ffffffffffffffffffffffffffffffffffffffff1673ffffffffffffffffffffffffffffffffffffffff16815260200190815260200160002060006101000a81548160ff0219169083151502179055505050565b60008073ffffffffffffffffffffffffffffffffffffffff168273ffffffffffffffffffffffffffffffffffffffff16141515156200045d57600080fd5b8260000160008373ffffffffffffffffffffffffffffffffffffffff1673ffffffffffffffffffffffffffffffffffffffff16815260200190815260200160002060009054906101000a900460ff16905092915050565b6040516113c980620052be83390190565b614de980620004d56000396000f3fe60806040526004361061011d576000357c0100000000000000000000000000000000000000000000000000000000900463ffffffff1680630a46d8811461012c57806330393192146102085780633f4ba83a1461023357806346fbf68e1461024a57806357ebcc75146102b35780635c975abb146103065780635e3843681461033557806365145440146103885780636822e93d146105595780636ef8d66d1461076f578063715018a61461078657806382dc1ec41461079d5780638456cb59146107ee5780638da5cb5b146108055780638f32d59b1461085c578063971a416f1461088b578063a314a14814610a7c578063ab0a59a814610acb578063dfa2ed6a14610bab578063eb2c022314610d7c578063f2fde38b14610de5575b34801561012957600080fd5b50005b34801561013857600080fd5b506101f26004803603602081101561014f57600080fd5b810190808035906020019064010000000081111561016c57600080fd5b82018360208201111561017e57600080fd5b803590602001918460018302840111640100000000831117156101a057600080fd5b91908080601f016020809104026020016040519081016040528093929190818152602001838380828437600081840152601f19601f820116905080830192505050505050509192919290505050610e36565b6040518082815260200191505060405180910390f35b34801561021457600080fd5b5061021d610f47565b6040518082815260200191505060405180910390f35b34801561023f57600080fd5b50610248611055565b005b34801561025657600080fd5b506102996004803603602081101561026d57600080fd5b81019080803573ffffffffffffffffffffffffffffffffffffffff169060200190929190505050611104565b604051808215151515815260200191505060405180910390f35b3480156102bf57600080fd5b506102ec600480360360208110156102d657600080fd5b8101908080359060200190929190505050611121565b604051808215151515815260200191505060405180910390f35b34801561031257600080fd5b5061031b611d51565b604051808215151515815260200191505060405180910390f35b34801561034157600080fd5b5061036e6004803603602081101561035857600080fd5b8101908080359060200190929190505050611d68565b604051808215151515815260200191505060405180910390f35b34801561039457600080fd5b506103c1600480360360208110156103ab57600080fd5b8101908080359060200190929190505050611e3d565b60405180871515151581526020018060200180602001868152602001806020018573ffffffffffffffffffffffffffffffffffffffff1673ffffffffffffffffffffffffffffffffffffffff168152602001848103845289818151815260200191508051906020019080838360005b8381101561044b578082015181840152602081019050610430565b50505050905090810190601f1680156104785780820380516001836020036101000a031916815260200191505b50848103835288818151815260200191508051906020019080838360005b838110156104b1578082015181840152602081019050610496565b50505050905090810190601f1680156104de5780820380516001836020036101000a031916815260200191505b50848103825286818151815260200191508051906020019080838360005b838110156105175780820151818401526020810190506104fc565b50505050905090810190601f1680156105445780820380516001836020036101000a031916815260200191505b50995050505050505050505060405180910390f35b34801561056557600080fd5b506107596004803603608081101561057c57600080fd5b810190808035906020019064010000000081111561059957600080fd5b8201836020820111156105ab57600080fd5b803590602001918460018302840111640100000000831117156105cd57600080fd5b91908080601f016020809104026020016040519081016040528093929190818152602001838380828437600081840152601f19601f8201169050808301925050505050505091929192908035151590602001909291908035906020019064010000000081111561063c57600080fd5b82018360208201111561064e57600080fd5b8035906020019184600183028401116401000000008311171561067057600080fd5b91908080601f016020809104026020016040519081016040528093929190818152602001838380828437600081840152601f19601f820116905080830192505050505050509192919290803590602001906401000000008111156106d357600080fd5b8201836020820111156106e557600080fd5b8035906020019184600183028401116401000000008311171561070757600080fd5b91908080601f016020809104026020016040519081016040528093929190818152602001838380828437600081840152601f19601f820116905080830192505050505050509192919290505050611e6e565b6040518082815260200191505060405180910390f35b34801561077b57600080fd5b50610784612f02565b005b34801561079257600080fd5b5061079b612f0d565b005b3480156107a957600080fd5b506107ec600480360360208110156107c057600080fd5b81019080803573ffffffffffffffffffffffffffffffffffffffff169060200190929190505050612fdf565b005b3480156107fa57600080fd5b50610803612fff565b005b34801561081157600080fd5b5061081a6130af565b604051808273ffffffffffffffffffffffffffffffffffffffff1673ffffffffffffffffffffffffffffffffffffffff16815260200191505060405180910390f35b34801561086857600080fd5b506108716130d8565b604051808215151515815260200191505060405180910390f35b34801561089757600080fd5b506108e4600480360360408110156108ae57600080fd5b81019080803573ffffffffffffffffffffffffffffffffffffffff1690602001909291908035906020019092919050505061312f565b60405180871515151581526020018060200180602001868152602001806020018573ffffffffffffffffffffffffffffffffffffffff1673ffffffffffffffffffffffffffffffffffffffff168152602001848103845289818151815260200191508051906020019080838360005b8381101561096e578082015181840152602081019050610953565b50505050905090810190601f16801561099b5780820380516001836020036101000a031916815260200191505b50848103835288818151815260200191508051906020019080838360005b838110156109d45780820151818401526020810190506109b9565b50505050905090810190601f168015610a015780820380516001836020036101000a031916815260200191505b50848103825286818151815260200191508051906020019080838360005b83811015610a3a578082015181840152602081019050610a1f565b50505050905090810190601f168015610a675780820380516001836020036101000a031916815260200191505b50995050505050505050505060405180910390f35b348015610a8857600080fd5b50610ab560048036036020811015610a9f57600080fd5b8101908080359060200190929190505050613434565b6040518082815260200191505060405180910390f35b348015610ad757600080fd5b50610b9160048036036020811015610aee57600080fd5b8101908080359060200190640100000000811115610b0b57600080fd5b820183602082011115610b1d57600080fd5b80359060200191846001830284011164010000000083111715610b3f57600080fd5b91908080601f016020809104026020016040519081016040528093929190818152602001838380828437600081840152601f19601f820116905080830192505050505050509192919290505050613507565b604051808215151515815260200191505060405180910390f35b348015610bb757600080fd5b50610be460048036036020811015610bce57600080fd5b810190808035906020019092919050505061361a565b60405180871515151581526020018060200180602001868152602001806020018573ffffffffffffffffffffffffffffffffffffffff1673ffffffffffffffffffffffffffffffffffffffff168152602001848103845289818151815260200191508051906020019080838360005b83811015610c6e578082015181840152602081019050610c53565b50505050905090810190601f168015610c9b5780820380516001836020036101000a031916815260200191505b50848103835288818151815260200191508051906020019080838360005b83811015610cd4578082015181840152602081019050610cb9565b50505050905090810190601f168015610d015780820380516001836020036101000a031916815260200191505b50848103825286818151815260200191508051906020019080838360005b83811015610d3a578082015181840152602081019050610d1f565b50505050905090810190601f168015610d675780820380516001836020036101000a031916815260200191505b50995050505050505050505060405180910390f35b348015610d8857600080fd5b50610dcb60048036036020811015610d9f57600080fd5b81019080803573ffffffffffffffffffffffffffffffffffffffff169060200190929190505050614247565b604051808215151515815260200191505060405180910390f35b348015610df157600080fd5b50610e3460048036036020811015610e0857600080fd5b81019080803573ffffffffffffffffffffffffffffffffffffffff169060200190929190505050614466565b005b6000600260019054906101000a900473ffffffffffffffffffffffffffffffffffffffff1673ffffffffffffffffffffffffffffffffffffffff1663bd02d0f5610eb56040805190810160405280600c81526020017f6d65646961486173684d6170000000000000000000000000000000000000000081525085614485565b6040518263ffffffff167c01000000000000000000000000000000000000000000000000000000000281526004018082815260200191505060206040518083038186803b158015610f0557600080fd5b505afa158015610f19573d6000803e3d6000fd5b505050506040513d6020811015610f2f57600080fd5b81019080805190602001909291905050509050919050565b6000600260019054906101000a900473ffffffffffffffffffffffffffffffffffffffff1673ffffffffffffffffffffffffffffffffffffffff1663bd02d0f5610fc56040805190810160405280600e81526020017f6c6173744d65646961496e646578000000000000000000000000000000000000815250614558565b6040518263ffffffff167c01000000000000000000000000000000000000000000000000000000000281526004018082815260200191505060206040518083038186803b15801561101557600080fd5b505afa158015611029573d6000803e3d6000fd5b505050506040513d602081101561103f57600080fd5b8101908080519060200190929190505050905090565b61105e33611104565b151561106957600080fd5b600260009054906101000a900460ff16151561108457600080fd5b6000600260006101000a81548160ff0219169083151502179055507f5db9ee0a495bf2e6ff9c91a7834c1ba4fdd244a5e8aa4e537bd38aeae4b073aa33604051808273ffffffffffffffffffffffffffffffffffffffff1673ffffffffffffffffffffffffffffffffffffffff16815260200191505060405180910390a1565b600061111a8260016145d590919063ffffffff16565b9050919050565b6000600260009054906101000a900460ff1615151561113f57600080fd5b6000600260019054906101000a900473ffffffffffffffffffffffffffffffffffffffff1673ffffffffffffffffffffffffffffffffffffffff1663bd02d0f5846040518263ffffffff167c01000000000000000000000000000000000000000000000000000000000281526004018082815260200191505060206040518083038186803b1580156111d057600080fd5b505afa1580156111e4573d6000803e3d6000fd5b505050506040513d60208110156111fa57600080fd5b81019080805190602001909291905050509050600081141515156112ac576040517f08c379a00000000000000000000000000000000000000000000000000000000081526004018080602001828103825260248152602001807f546865206d656469612066696c6520746f2064656c657465206d75737420657881526020017f697374210000000000000000000000000000000000000000000000000000000081525060400191505060405180910390fd5b3373ffffffffffffffffffffffffffffffffffffffff166112cc82614669565b73ffffffffffffffffffffffffffffffffffffffff1614151561137d576040517f08c379a000000000000000000000000000000000000000000000000000000000815260040180806020018281038252602f8152602001807f4f6e6c7920746865206f776e6572206f6620746865206d656469612066696c6581526020017f2063616e2064656c65746520697421000000000000000000000000000000000081525060400191505060405180910390fd5b6000600260019054906101000a900473ffffffffffffffffffffffffffffffffffffffff1673ffffffffffffffffffffffffffffffffffffffff1663bd02d0f56114326040805190810160405280600c81526020017f757365724d656469614d61700000000000000000000000000000000000000000815250336040805190810160405280600e81526020017f757365724d65646961496e6465780000000000000000000000000000000000008152506147b0565b6040518263ffffffff167c01000000000000000000000000000000000000000000000000000000000281526004018082815260200191505060206040518083038186803b15801561148257600080fd5b505afa158015611496573d6000803e3d6000fd5b505050506040513d60208110156114ac57600080fd5b81019080805190602001909291905050509050600260019054906101000a900473ffffffffffffffffffffffffffffffffffffffff1673ffffffffffffffffffffffffffffffffffffffff16632c62ff2d6115726040805190810160405280600881526020017f6d656469614d6170000000000000000000000000000000000000000000000000815250856040805190810160405280600781526020017f6973566964656f000000000000000000000000000000000000000000000000008152506148c7565b6040518263ffffffff167c010000000000000000000000000000000000000000000000000000000002815260040180828152602001915050600060405180830381600087803b1580156115c457600080fd5b505af11580156115d8573d6000803e3d6000fd5b50505050600260019054906101000a900473ffffffffffffffffffffffffffffffffffffffff1673ffffffffffffffffffffffffffffffffffffffff1663f6bb3cc461168f6040805190810160405280600881526020017f6d656469614d6170000000000000000000000000000000000000000000000000815250856040805190810160405280600581526020017f7469746c650000000000000000000000000000000000000000000000000000008152506148c7565b6040518263ffffffff167c010000000000000000000000000000000000000000000000000000000002815260040180828152602001915050600060405180830381600087803b1580156116e157600080fd5b505af11580156116f5573d6000803e3d6000fd5b50505050600260019054906101000a900473ffffffffffffffffffffffffffffffffffffffff1673ffffffffffffffffffffffffffffffffffffffff1663f6bb3cc46117ac6040805190810160405280600881526020017f6d656469614d6170000000000000000000000000000000000000000000000000815250856040805190810160405280600b81526020017f6465736372697074696f6e0000000000000000000000000000000000000000008152506148c7565b6040518263ffffffff167c010000000000000000000000000000000000000000000000000000000002815260040180828152602001915050600060405180830381600087803b1580156117fe57600080fd5b505af1158015611812573d6000803e3d6000fd5b50505050600260019054906101000a900473ffffffffffffffffffffffffffffffffffffffff1673ffffffffffffffffffffffffffffffffffffffff1663e2b202bf6118c96040805190810160405280600881526020017f6d656469614d6170000000000000000000000000000000000000000000000000815250856040805190810160405280600981526020017f74696d657374616d7000000000000000000000000000000000000000000000008152506148c7565b6040518263ffffffff167c010000000000000000000000000000000000000000000000000000000002815260040180828152602001915050600060405180830381600087803b15801561191b57600080fd5b505af115801561192f573d6000803e3d6000fd5b50505050600260019054906101000a900473ffffffffffffffffffffffffffffffffffffffff1673ffffffffffffffffffffffffffffffffffffffff1663f6bb3cc46119e66040805190810160405280600881526020017f6d656469614d6170000000000000000000000000000000000000000000000000815250856040805190810160405280600981526020017f6d656469614861736800000000000000000000000000000000000000000000008152506148c7565b6040518263ffffffff167c010000000000000000000000000000000000000000000000000000000002815260040180828152602001915050600060405180830381600087803b158015611a3857600080fd5b505af1158015611a4c573d6000803e3d6000fd5b50505050600260019054906101000a900473ffffffffffffffffffffffffffffffffffffffff1673ffffffffffffffffffffffffffffffffffffffff16630e14a376611b036040805190810160405280600881526020017f6d656469614d6170000000000000000000000000000000000000000000000000815250856040805190810160405280600a81526020017f6d656469614f776e6572000000000000000000000000000000000000000000008152506148c7565b6040518263ffffffff167c010000000000000000000000000000000000000000000000000000000002815260040180828152602001915050600060405180830381600087803b158015611b5557600080fd5b505af1158015611b69573d6000803e3d6000fd5b50505050600260019054906101000a900473ffffffffffffffffffffffffffffffffffffffff1673ffffffffffffffffffffffffffffffffffffffff1663e2b202bf611beb6040805190810160405280600c81526020017f757365724d656469614d6170000000000000000000000000000000000000000081525033856149a3565b6040518263ffffffff167c010000000000000000000000000000000000000000000000000000000002815260040180828152602001915050600060405180830381600087803b158015611c3d57600080fd5b505af1158015611c51573d6000803e3d6000fd5b50505050600260019054906101000a900473ffffffffffffffffffffffffffffffffffffffff1673ffffffffffffffffffffffffffffffffffffffff1663e2b202bf856040518263ffffffff167c010000000000000000000000000000000000000000000000000000000002815260040180828152602001915050600060405180830381600087803b158015611ce657600080fd5b505af1158015611cfa573d6000803e3d6000fd5b505050503373ffffffffffffffffffffffffffffffffffffffff1682857f46217d4902fffae2bd41ced10c21d9b91ec9c47a01dd44a4d7d9991c435a579c60405160405180910390a4600192508292505050919050565b6000600260009054906101000a900460ff16905090565b600080600260019054906101000a900473ffffffffffffffffffffffffffffffffffffffff1673ffffffffffffffffffffffffffffffffffffffff1663bd02d0f5846040518263ffffffff167c01000000000000000000000000000000000000000000000000000000000281526004018082815260200191505060206040518083038186803b158015611dfa57600080fd5b505afa158015611e0e573d6000803e3d6000fd5b505050506040513d6020811015611e2457600080fd5b8101908080519060200190929190505050119050919050565b6000606080600060606000611e59611e5488613434565b61361a565b95509550955095509550955091939550919395565b6000600260009054906101000a900460ff16151515611e8c57600080fd5b6000600260019054906101000a900473ffffffffffffffffffffffffffffffffffffffff1673ffffffffffffffffffffffffffffffffffffffff1663bd02d0f5611f0b6040805190810160405280600c81526020017f6d65646961486173684d6170000000000000000000000000000000000000000081525089614485565b6040518263ffffffff167c01000000000000000000000000000000000000000000000000000000000281526004018082815260200191505060206040518083038186803b158015611f5b57600080fd5b505afa158015611f6f573d6000803e3d6000fd5b505050506040513d6020811015611f8557600080fd5b810190808051906020019092919050505014151561200b576040517f08c379a000000000000000000000000000000000000000000000000000000000815260040180806020018281038252601d8152602001807f4d656469612066696c652073686f756c64206e6f74206578697374732e00000081525060200191505060405180910390fd5b60006121276001600260019054906101000a900473ffffffffffffffffffffffffffffffffffffffff1673ffffffffffffffffffffffffffffffffffffffff1663bd02d0f561208e6040805190810160405280600e81526020017f6c6173744d65646961496e646578000000000000000000000000000000000000815250614558565b6040518263ffffffff167c01000000000000000000000000000000000000000000000000000000000281526004018082815260200191505060206040518083038186803b1580156120de57600080fd5b505afa1580156120f2573d6000803e3d6000fd5b505050506040513d602081101561210857600080fd5b8101908080519060200190929190505050614a6d90919063ffffffff16565b90506000600260019054906101000a900473ffffffffffffffffffffffffffffffffffffffff1673ffffffffffffffffffffffffffffffffffffffff1663bd02d0f56121de6040805190810160405280600c81526020017f757365724d656469614d61700000000000000000000000000000000000000000815250336040805190810160405280600e81526020017f757365724d65646961496e6465780000000000000000000000000000000000008152506147b0565b6040518263ffffffff167c01000000000000000000000000000000000000000000000000000000000281526004018082815260200191505060206040518083038186803b15801561222e57600080fd5b505afa158015612242573d6000803e3d6000fd5b505050506040513d602081101561225857600080fd5b810190808051906020019092919050505090506122aa6040805190810160405280600c81526020017f6d65646961486173684d6170000000000000000000000000000000000000000081525088614485565b9250600260019054906101000a900473ffffffffffffffffffffffffffffffffffffffff1673ffffffffffffffffffffffffffffffffffffffff1663f8715b3e61235f6040805190810160405280600881526020017f6d656469614d6170000000000000000000000000000000000000000000000000815250856040805190810160405280600781526020017f6973566964656f000000000000000000000000000000000000000000000000008152506148c7565b886040518363ffffffff167c0100000000000000000000000000000000000000000000000000000000028152600401808381526020018215151515815260200192505050600060405180830381600087803b1580156123bd57600080fd5b505af11580156123d1573d6000803e3d6000fd5b50505050600260019054906101000a900473ffffffffffffffffffffffffffffffffffffffff1673ffffffffffffffffffffffffffffffffffffffff16636e8995506124886040805190810160405280600881526020017f6d656469614d6170000000000000000000000000000000000000000000000000815250856040805190810160405280600581526020017f7469746c650000000000000000000000000000000000000000000000000000008152506148c7565b876040518363ffffffff167c01000000000000000000000000000000000000000000000000000000000281526004018083815260200180602001828103825283818151815260200191508051906020019080838360005b838110156124fa5780820151818401526020810190506124df565b50505050905090810190601f1680156125275780820380516001836020036101000a031916815260200191505b509350505050600060405180830381600087803b15801561254757600080fd5b505af115801561255b573d6000803e3d6000fd5b50505050600260019054906101000a900473ffffffffffffffffffffffffffffffffffffffff1673ffffffffffffffffffffffffffffffffffffffff16636e8995506126126040805190810160405280600881526020017f6d656469614d6170000000000000000000000000000000000000000000000000815250856040805190810160405280600b81526020017f6465736372697074696f6e0000000000000000000000000000000000000000008152506148c7565b866040518363ffffffff167c01000000000000000000000000000000000000000000000000000000000281526004018083815260200180602001828103825283818151815260200191508051906020019080838360005b83811015612684578082015181840152602081019050612669565b50505050905090810190601f1680156126b15780820380516001836020036101000a031916815260200191505b509350505050600060405180830381600087803b1580156126d157600080fd5b505af11580156126e5573d6000803e3d6000fd5b50505050600260019054906101000a900473ffffffffffffffffffffffffffffffffffffffff1673ffffffffffffffffffffffffffffffffffffffff1663e2a4853a61279c6040805190810160405280600881526020017f6d656469614d6170000000000000000000000000000000000000000000000000815250856040805190810160405280600981526020017f74696d657374616d7000000000000000000000000000000000000000000000008152506148c7565b426040518363ffffffff167c01000000000000000000000000000000000000000000000000000000000281526004018083815260200182815260200192505050600060405180830381600087803b1580156127f657600080fd5b505af115801561280a573d6000803e3d6000fd5b50505050600260019054906101000a900473ffffffffffffffffffffffffffffffffffffffff1673ffffffffffffffffffffffffffffffffffffffff16636e8995506128c16040805190810160405280600881526020017f6d656469614d6170000000000000000000000000000000000000000000000000815250856040805190810160405280600981526020017f6d656469614861736800000000000000000000000000000000000000000000008152506148c7565b896040518363ffffffff167c01000000000000000000000000000000000000000000000000000000000281526004018083815260200180602001828103825283818151815260200191508051906020019080838360005b83811015612933578082015181840152602081019050612918565b50505050905090810190601f1680156129605780820380516001836020036101000a031916815260200191505b509350505050600060405180830381600087803b15801561298057600080fd5b505af1158015612994573d6000803e3d6000fd5b50505050600260019054906101000a900473ffffffffffffffffffffffffffffffffffffffff1673ffffffffffffffffffffffffffffffffffffffff1663ca446dd9612a4b6040805190810160405280600881526020017f6d656469614d6170000000000000000000000000000000000000000000000000815250856040805190810160405280600a81526020017f6d656469614f776e6572000000000000000000000000000000000000000000008152506148c7565b336040518363ffffffff167c0100000000000000000000000000000000000000000000000000000000028152600401808381526020018273ffffffffffffffffffffffffffffffffffffffff1673ffffffffffffffffffffffffffffffffffffffff16815260200192505050600060405180830381600087803b158015612ad157600080fd5b505af1158015612ae5573d6000803e3d6000fd5b50505050600260019054906101000a900473ffffffffffffffffffffffffffffffffffffffff1673ffffffffffffffffffffffffffffffffffffffff1663e2a4853a612b676040805190810160405280600c81526020017f757365724d656469614d6170000000000000000000000000000000000000000081525033856149a3565b846040518363ffffffff167c01000000000000000000000000000000000000000000000000000000000281526004018083815260200182815260200192505050600060405180830381600087803b158015612bc157600080fd5b505af1158015612bd5573d6000803e3d6000fd5b50505050600260019054906101000a900473ffffffffffffffffffffffffffffffffffffffff1673ffffffffffffffffffffffffffffffffffffffff1663e2a4853a612c8c6040805190810160405280600c81526020017f757365724d656469614d61700000000000000000000000000000000000000000815250336040805190810160405280600e81526020017f757365724d65646961496e6465780000000000000000000000000000000000008152506147b0565b612ca0600185614a6d90919063ffffffff16565b6040518363ffffffff167c01000000000000000000000000000000000000000000000000000000000281526004018083815260200182815260200192505050600060405180830381600087803b158015612cf957600080fd5b505af1158015612d0d573d6000803e3d6000fd5b50505050600260019054906101000a900473ffffffffffffffffffffffffffffffffffffffff1673ffffffffffffffffffffffffffffffffffffffff1663e2a4853a84846040518363ffffffff167c01000000000000000000000000000000000000000000000000000000000281526004018083815260200182815260200192505050600060405180830381600087803b158015612daa57600080fd5b505af1158015612dbe573d6000803e3d6000fd5b50505050600260019054906101000a900473ffffffffffffffffffffffffffffffffffffffff1673ffffffffffffffffffffffffffffffffffffffff1663e2a4853a612e3e6040805190810160405280600e81526020017f6c6173744d65646961496e646578000000000000000000000000000000000000815250614558565b846040518363ffffffff167c01000000000000000000000000000000000000000000000000000000000281526004018083815260200182815260200192505050600060405180830381600087803b158015612e9857600080fd5b505af1158015612eac573d6000803e3d6000fd5b505050503373ffffffffffffffffffffffffffffffffffffffff1682847fa2a0b7c18b441acd36cf9cb3799959a9bb31d4473f21cd98eb8d03a26892f8aa60405160405180910390a48292505050949350505050565b612f0b33614a8e565b565b612f156130d8565b1515612f2057600080fd5b600073ffffffffffffffffffffffffffffffffffffffff166000809054906101000a900473ffffffffffffffffffffffffffffffffffffffff1673ffffffffffffffffffffffffffffffffffffffff167f8be0079c531659141344cd1fd0a4f28419497f9722a3daafe3b4186f6b6457e060405160405180910390a360008060006101000a81548173ffffffffffffffffffffffffffffffffffffffff021916908373ffffffffffffffffffffffffffffffffffffffff160217905550565b612fe833611104565b1515612ff357600080fd5b612ffc81614ae8565b50565b61300833611104565b151561301357600080fd5b600260009054906101000a900460ff1615151561302f57600080fd5b6001600260006101000a81548160ff0219169083151502179055507f62e78cea01bee320cd4e420270b5ea74000d11b0c9f74754ebdbfc544b05a25833604051808273ffffffffffffffffffffffffffffffffffffffff1673ffffffffffffffffffffffffffffffffffffffff16815260200191505060405180910390a1565b60008060009054906101000a900473ffffffffffffffffffffffffffffffffffffffff16905090565b60008060009054906101000a900473ffffffffffffffffffffffffffffffffffffffff1673ffffffffffffffffffffffffffffffffffffffff163373ffffffffffffffffffffffffffffffffffffffff1614905090565b600060608060006060600080600260019054906101000a900473ffffffffffffffffffffffffffffffffffffffff1673ffffffffffffffffffffffffffffffffffffffff1663bd02d0f56131ee6040805190810160405280600c81526020017f757365724d656469614d617000000000000000000000000000000000000000008152508c6040805190810160405280600e81526020017f757365724d65646961496e6465780000000000000000000000000000000000008152506147b0565b6040518263ffffffff167c01000000000000000000000000000000000000000000000000000000000281526004018082815260200191505060206040518083038186803b15801561323e57600080fd5b505afa158015613252573d6000803e3d6000fd5b505050506040513d602081101561326857600080fd5b810190808051906020019092919050505090506000600260019054906101000a900473ffffffffffffffffffffffffffffffffffffffff1673ffffffffffffffffffffffffffffffffffffffff1663bd02d0f56132fb6040805190810160405280600c81526020017f757365724d656469614d617000000000000000000000000000000000000000008152508d8d6149a3565b6040518263ffffffff167c01000000000000000000000000000000000000000000000000000000000281526004018082815260200191505060206040518083038186803b15801561334b57600080fd5b505afa15801561335f573d6000803e3d6000fd5b505050506040513d602081101561337557600080fd5b8101908080519060200190929190505050905061339c600183614b4290919063ffffffff16565b8911151515613413576040517f08c379a00000000000000000000000000000000000000000000000000000000081526004018080602001828103825260128152602001807f4f766572666c6f772064657465637465642e000000000000000000000000000081525060200191505060405180910390fd5b61341c8161361a565b97509750975097509750975050509295509295509295565b6000600260019054906101000a900473ffffffffffffffffffffffffffffffffffffffff1673ffffffffffffffffffffffffffffffffffffffff1663bd02d0f5836040518263ffffffff167c01000000000000000000000000000000000000000000000000000000000281526004018082815260200191505060206040518083038186803b1580156134c557600080fd5b505afa1580156134d9573d6000803e3d6000fd5b505050506040513d60208110156134ef57600080fd5b81019080805190602001909291905050509050919050565b600080600260019054906101000a900473ffffffffffffffffffffffffffffffffffffffff1673ffffffffffffffffffffffffffffffffffffffff1663bd02d0f56135876040805190810160405280600c81526020017f6d65646961486173684d6170000000000000000000000000000000000000000081525086614485565b6040518263ffffffff167c01000000000000000000000000000000000000000000000000000000000281526004018082815260200191505060206040518083038186803b1580156135d757600080fd5b505afa1580156135eb573d6000803e3d6000fd5b505050506040513d602081101561360157600080fd5b8101908080519060200190929190505050119050919050565b600060608060006060600080871115156136c2576040517f08c379a00000000000000000000000000000000000000000000000000000000081526004018080602001828103825260238152602001807f4d6564696120696e646578206d7573742062652067726561746572207468616e81526020017f20302e000000000000000000000000000000000000000000000000000000000081525060400191505060405180910390fd5b6000600260019054906101000a900473ffffffffffffffffffffffffffffffffffffffff1673ffffffffffffffffffffffffffffffffffffffff1663bd02d0f56137776040805190810160405280600c81526020017f757365724d656469614d61700000000000000000000000000000000000000000815250336040805190810160405280600e81526020017f757365724d65646961496e6465780000000000000000000000000000000000008152506147b0565b6040518263ffffffff167c01000000000000000000000000000000000000000000000000000000000281526004018082815260200191505060206040518083038186803b1580156137c757600080fd5b505afa1580156137db573d6000803e3d6000fd5b505050506040513d60208110156137f157600080fd5b81019080805190602001909291905050509050600260019054906101000a900473ffffffffffffffffffffffffffffffffffffffff1673ffffffffffffffffffffffffffffffffffffffff166321f8a7216138b76040805190810160405280600881526020017f6d656469614d61700000000000000000000000000000000000000000000000008152508b6040805190810160405280600a81526020017f6d656469614f776e6572000000000000000000000000000000000000000000008152506148c7565b6040518263ffffffff167c01000000000000000000000000000000000000000000000000000000000281526004018082815260200191505060206040518083038186803b15801561390757600080fd5b505afa15801561391b573d6000803e3d6000fd5b505050506040513d602081101561393157600080fd5b8101908080519060200190929190505050915087600260019054906101000a900473ffffffffffffffffffffffffffffffffffffffff1673ffffffffffffffffffffffffffffffffffffffff1663bd02d0f56139c36040805190810160405280600c81526020017f757365724d656469614d6170000000000000000000000000000000000000000081525086866149a3565b6040518263ffffffff167c01000000000000000000000000000000000000000000000000000000000281526004018082815260200191505060206040518083038186803b158015613a1357600080fd5b505afa158015613a27573d6000803e3d6000fd5b505050506040513d6020811015613a3d57600080fd5b8101908080519060200190929190505050141515613ae9576040517f08c379a000000000000000000000000000000000000000000000000000000000815260040180806020018281038252603d8152602001807f4d656469612066696c65206e6f7420666f756e64206f722069742773206e6f7481526020017f2061737369676e656420746f20746865207269676874206f776e65722e00000081525060400191505060405180910390fd5b600260019054906101000a900473ffffffffffffffffffffffffffffffffffffffff1673ffffffffffffffffffffffffffffffffffffffff16633848207a613b9c6040805190810160405280600881526020017f6d656469614d61700000000000000000000000000000000000000000000000008152508b6040805190810160405280600781526020017f6973566964656f000000000000000000000000000000000000000000000000008152506148c7565b6040518263ffffffff167c01000000000000000000000000000000000000000000000000000000000281526004018082815260200191505060206040518083038186803b158015613bec57600080fd5b505afa158015613c00573d6000803e3d6000fd5b505050506040513d6020811015613c1657600080fd5b81019080805190602001909291905050509650600260019054906101000a900473ffffffffffffffffffffffffffffffffffffffff1673ffffffffffffffffffffffffffffffffffffffff1663986e791a613cdc6040805190810160405280600881526020017f6d656469614d61700000000000000000000000000000000000000000000000008152508b6040805190810160405280600581526020017f7469746c650000000000000000000000000000000000000000000000000000008152506148c7565b6040518263ffffffff167c01000000000000000000000000000000000000000000000000000000000281526004018082815260200191505060006040518083038186803b158015613d2c57600080fd5b505afa158015613d40573d6000803e3d6000fd5b505050506040513d6000823e3d601f19601f820116820180604052506020811015613d6a57600080fd5b810190808051640100000000811115613d8257600080fd5b82810190506020810184811115613d9857600080fd5b8151856001820283011164010000000082111715613db557600080fd5b50509291905050509550600260019054906101000a900473ffffffffffffffffffffffffffffffffffffffff1673ffffffffffffffffffffffffffffffffffffffff1663986e791a613e726040805190810160405280600881526020017f6d656469614d61700000000000000000000000000000000000000000000000008152508b6040805190810160405280600b81526020017f6465736372697074696f6e0000000000000000000000000000000000000000008152506148c7565b6040518263ffffffff167c01000000000000000000000000000000000000000000000000000000000281526004018082815260200191505060006040518083038186803b158015613ec257600080fd5b505afa158015613ed6573d6000803e3d6000fd5b505050506040513d6000823e3d601f19601f820116820180604052506020811015613f0057600080fd5b810190808051640100000000811115613f1857600080fd5b82810190506020810184811115613f2e57600080fd5b8151856001820283011164010000000082111715613f4b57600080fd5b50509291905050509450600260019054906101000a900473ffffffffffffffffffffffffffffffffffffffff1673ffffffffffffffffffffffffffffffffffffffff1663bd02d0f56140086040805190810160405280600881526020017f6d656469614d61700000000000000000000000000000000000000000000000008152508b6040805190810160405280600981526020017f74696d657374616d7000000000000000000000000000000000000000000000008152506148c7565b6040518263ffffffff167c01000000000000000000000000000000000000000000000000000000000281526004018082815260200191505060206040518083038186803b15801561405857600080fd5b505afa15801561406c573d6000803e3d6000fd5b505050506040513d602081101561408257600080fd5b81019080805190602001909291905050509350600260019054906101000a900473ffffffffffffffffffffffffffffffffffffffff1673ffffffffffffffffffffffffffffffffffffffff1663986e791a6141486040805190810160405280600881526020017f6d656469614d61700000000000000000000000000000000000000000000000008152508b6040805190810160405280600981526020017f6d656469614861736800000000000000000000000000000000000000000000008152506148c7565b6040518263ffffffff167c01000000000000000000000000000000000000000000000000000000000281526004018082815260200191505060006040518083038186803b15801561419857600080fd5b505afa1580156141ac573d6000803e3d6000fd5b505050506040513d6000823e3d601f19601f8201168201806040525060208110156141d657600080fd5b8101908080516401000000008111156141ee57600080fd5b8281019050602081018481111561420457600080fd5b815185600182028301116401000000008211171561422157600080fd5b505092919050505092508686868686869650965096509650965096505091939550919395565b60006142516130d8565b151561425c57600080fd5b600073ffffffffffffffffffffffffffffffffffffffff168273ffffffffffffffffffffffffffffffffffffffff1614151515614327576040517f08c379a000000000000000000000000000000000000000000000000000000000815260040180806020018281038252602a8152602001807f73686f756c642070726f7669646520612076616c69642061646472657373207481526020017f6f20757067726164652e0000000000000000000000000000000000000000000081525060400191505060405180910390fd5b8173ffffffffffffffffffffffffffffffffffffffff166143466130af565b73ffffffffffffffffffffffffffffffffffffffff167f2c9bf8f5bb4744a270a43e5fcd368bf073123a1ffba6ff0b39276bf5dd20e6a460405160405180910390a3600260019054906101000a900473ffffffffffffffffffffffffffffffffffffffff1673ffffffffffffffffffffffffffffffffffffffff1663f2fde38b836040518263ffffffff167c0100000000000000000000000000000000000000000000000000000000028152600401808273ffffffffffffffffffffffffffffffffffffffff1673ffffffffffffffffffffffffffffffffffffffff168152602001915050600060405180830381600087803b15801561444557600080fd5b505af1158015614459573d6000803e3d6000fd5b5050505060019050919050565b61446e6130d8565b151561447957600080fd5b61448281614b64565b50565b600082826040516020018083805190602001908083835b6020831015156144c1578051825260208201915060208101905060208303925061449c565b6001836020036101000a03801982511681845116808217855250505050505090500182805190602001908083835b60208310151561451457805182526020820191506020810190506020830392506144ef565b6001836020036101000a0380198251168184511680821785525050505050509050019250505060405160208183030381529060405280519060200120905092915050565b6000816040516020018082805190602001908083835b602083101515614593578051825260208201915060208101905060208303925061456e565b6001836020036101000a038019825116818451168082178552505050505050905001915050604051602081830303815290604052805190602001209050919050565b60008073ffffffffffffffffffffffffffffffffffffffff168273ffffffffffffffffffffffffffffffffffffffff161415151561461257600080fd5b8260000160008373ffffffffffffffffffffffffffffffffffffffff1673ffffffffffffffffffffffffffffffffffffffff16815260200190815260200160002060009054906101000a900460ff16905092915050565b6000600260019054906101000a900473ffffffffffffffffffffffffffffffffffffffff1673ffffffffffffffffffffffffffffffffffffffff166321f8a72161471e6040805190810160405280600881526020017f6d656469614d6170000000000000000000000000000000000000000000000000815250856040805190810160405280600a81526020017f6d656469614f776e6572000000000000000000000000000000000000000000008152506148c7565b6040518263ffffffff167c01000000000000000000000000000000000000000000000000000000000281526004018082815260200191505060206040518083038186803b15801561476e57600080fd5b505afa158015614782573d6000803e3d6000fd5b505050506040513d602081101561479857600080fd5b81019080805190602001909291905050509050919050565b60008383836040516020018084805190602001908083835b6020831015156147ed57805182526020820191506020810190506020830392506147c8565b6001836020036101000a0380198251168184511680821785525050505050509050018373ffffffffffffffffffffffffffffffffffffffff1673ffffffffffffffffffffffffffffffffffffffff166c0100000000000000000000000002815260140182805190602001908083835b602083101515614881578051825260208201915060208101905060208303925061485c565b6001836020036101000a03801982511681845116808217855250505050505090500193505050506040516020818303038152906040528051906020012090509392505050565b60008383836040516020018084805190602001908083835b60208310151561490457805182526020820191506020810190506020830392506148df565b6001836020036101000a03801982511681845116808217855250505050505090500183815260200182805190602001908083835b60208310151561495d5780518252602082019150602081019050602083039250614938565b6001836020036101000a03801982511681845116808217855250505050505090500193505050506040516020818303038152906040528051906020012090509392505050565b60008383836040516020018084805190602001908083835b6020831015156149e057805182526020820191506020810190506020830392506149bb565b6001836020036101000a0380198251168184511680821785525050505050509050018373ffffffffffffffffffffffffffffffffffffffff1673ffffffffffffffffffffffffffffffffffffffff166c0100000000000000000000000002815260140182815260200193505050506040516020818303038152906040528051906020012090509392505050565b6000808284019050838110151515614a8457600080fd5b8091505092915050565b614aa2816001614c5e90919063ffffffff16565b8073ffffffffffffffffffffffffffffffffffffffff167fcd265ebaf09df2871cc7bd4133404a235ba12eff2041bb89d9c714a2621c7c7e60405160405180910390a250565b614afc816001614d0d90919063ffffffff16565b8073ffffffffffffffffffffffffffffffffffffffff167f6719d08c1888103bea251a4ed56406bd0c3e69723c8a1686e017e7bbe159b6f860405160405180910390a250565b6000828211151515614b5357600080fd5b600082840390508091505092915050565b600073ffffffffffffffffffffffffffffffffffffffff168173ffffffffffffffffffffffffffffffffffffffff1614151515614ba057600080fd5b8073ffffffffffffffffffffffffffffffffffffffff166000809054906101000a900473ffffffffffffffffffffffffffffffffffffffff1673ffffffffffffffffffffffffffffffffffffffff167f8be0079c531659141344cd1fd0a4f28419497f9722a3daafe3b4186f6b6457e060405160405180910390a3806000806101000a81548173ffffffffffffffffffffffffffffffffffffffff021916908373ffffffffffffffffffffffffffffffffffffffff16021790555050565b600073ffffffffffffffffffffffffffffffffffffffff168173ffffffffffffffffffffffffffffffffffffffff1614151515614c9a57600080fd5b614ca482826145d5565b1515614caf57600080fd5b60008260000160008373ffffffffffffffffffffffffffffffffffffffff1673ffffffffffffffffffffffffffffffffffffffff16815260200190815260200160002060006101000a81548160ff0219169083151502179055505050565b600073ffffffffffffffffffffffffffffffffffffffff168173ffffffffffffffffffffffffffffffffffffffff1614151515614d4957600080fd5b614d5382826145d5565b151515614d5f57600080fd5b60018260000160008373ffffffffffffffffffffffffffffffffffffffff1673ffffffffffffffffffffffffffffffffffffffff16815260200190815260200160002060006101000a81548160ff021916908315150217905550505056fea165627a7a723058200beef33d9af9d71c415ddc88ddb966c792d79429d8360e80b46d78efabf6091c0029608060405234801561001057600080fd5b50336000806101000a81548173ffffffffffffffffffffffffffffffffffffffff021916908373ffffffffffffffffffffffffffffffffffffffff1602179055506000809054906101000a900473ffffffffffffffffffffffffffffffffffffffff1673ffffffffffffffffffffffffffffffffffffffff16600073ffffffffffffffffffffffffffffffffffffffff167f8be0079c531659141344cd1fd0a4f28419497f9722a3daafe3b4186f6b6457e060405160405180910390a36112ed806100dc6000396000f3fe608060405260043610610128576000357c0100000000000000000000000000000000000000000000000000000000900463ffffffff1680630e14a3761461012d57806321f8a721146101685780632c62ff2d146101e35780632e28d0841461021e5780633848207a146102f05780633e49bed014610343578063616b59f6146103885780636e899550146103c3578063715018a6146104955780638c160095146104ac5780638da5cb5b146104e75780638f32d59b1461053e578063986e791a1461056d578063bd02d0f514610621578063c031a18014610670578063ca446dd914610724578063dc97d9621461077f578063e2a4853a146107ce578063e2b202bf14610813578063f2fde38b1461084e578063f6bb3cc41461089f578063f8715b3e146108da575b600080fd5b34801561013957600080fd5b506101666004803603602081101561015057600080fd5b8101908080359060200190929190505050610921565b005b34801561017457600080fd5b506101a16004803603602081101561018b57600080fd5b8101908080359060200190929190505050610970565b604051808273ffffffffffffffffffffffffffffffffffffffff1673ffffffffffffffffffffffffffffffffffffffff16815260200191505060405180910390f35b3480156101ef57600080fd5b5061021c6004803603602081101561020657600080fd5b81019080803590602001909291905050506109c3565b005b34801561022a57600080fd5b506102ee6004803603604081101561024157600080fd5b81019080803590602001909291908035906020019064010000000081111561026857600080fd5b82018360208201111561027a57600080fd5b8035906020019184600183028401116401000000008311171561029c57600080fd5b91908080601f016020809104026020016040519081016040528093929190818152602001838380828437600081840152601f19601f8201169050808301925050505050505091929192905050506109fe565b005b3480156102fc57600080fd5b506103296004803603602081101561031357600080fd5b8101908080359060200190929190505050610a40565b604051808215151515815260200191505060405180910390f35b34801561034f57600080fd5b506103866004803603604081101561036657600080fd5b810190808035906020019092919080359060200190929190505050610a7f565b005b34801561039457600080fd5b506103c1600480360360208110156103ab57600080fd5b8101908080359060200190929190505050610ab1565b005b3480156103cf57600080fd5b50610493600480360360408110156103e657600080fd5b81019080803590602001909291908035906020019064010000000081111561040d57600080fd5b82018360208201111561041f57600080fd5b8035906020019184600183028401116401000000008311171561044157600080fd5b91908080601f016020809104026020016040519081016040528093929190818152602001838380828437600081840152601f19601f820116905080830192505050505050509192919290505050610ae9565b005b3480156104a157600080fd5b506104aa610b2b565b005b3480156104b857600080fd5b506104e5600480360360208110156104cf57600080fd5b8101908080359060200190929190505050610bfd565b005b3480156104f357600080fd5b506104fc610c2d565b604051808273ffffffffffffffffffffffffffffffffffffffff1673ffffffffffffffffffffffffffffffffffffffff16815260200191505060405180910390f35b34801561054a57600080fd5b50610553610c56565b604051808215151515815260200191505060405180910390f35b34801561057957600080fd5b506105a66004803603602081101561059057600080fd5b8101908080359060200190929190505050610cad565b6040518080602001828103825283818151815260200191508051906020019080838360005b838110156105e65780820151818401526020810190506105cb565b50505050905090810190601f1680156106135780820380516001836020036101000a031916815260200191505b509250505060405180910390f35b34801561062d57600080fd5b5061065a6004803603602081101561064457600080fd5b8101908080359060200190929190505050610d78565b6040518082815260200191505060405180910390f35b34801561067c57600080fd5b506106a96004803603602081101561069357600080fd5b8101908080359060200190929190505050610dab565b6040518080602001828103825283818151815260200191508051906020019080838360005b838110156106e95780820151818401526020810190506106ce565b50505050905090810190601f1680156107165780820380516001836020036101000a031916815260200191505b509250505060405180910390f35b34801561073057600080fd5b5061077d6004803603604081101561074757600080fd5b8101908080359060200190929190803573ffffffffffffffffffffffffffffffffffffffff169060200190929190505050610e76565b005b34801561078b57600080fd5b506107b8600480360360208110156107a257600080fd5b8101908080359060200190929190505050610ee2565b6040518082815260200191505060405180910390f35b3480156107da57600080fd5b50610811600480360360408110156107f157600080fd5b810190808035906020019092919080359060200190929190505050610f15565b005b34801561081f57600080fd5b5061084c6004803603602081101561083657600080fd5b8101908080359060200190929190505050610f47565b005b34801561085a57600080fd5b5061089d6004803603602081101561087157600080fd5b81019080803573ffffffffffffffffffffffffffffffffffffffff169060200190929190505050610f77565b005b3480156108ab57600080fd5b506108d8600480360360208110156108c257600080fd5b8101908080359060200190929190505050610f96565b005b3480156108e657600080fd5b5061091f600480360360408110156108fd57600080fd5b8101908080359060200190929190803515159060200190929190505050610fce565b005b610929610c56565b151561093457600080fd5b6001600401600082815260200190815260200160002060006101000a81549073ffffffffffffffffffffffffffffffffffffffff021916905550565b600061097a610c56565b151561098557600080fd5b6001600401600083815260200190815260200160002060009054906101000a900473ffffffffffffffffffffffffffffffffffffffff169050919050565b6109cb610c56565b15156109d657600080fd5b60018001600082815260200190815260200160002060006101000a81549060ff021916905550565b610a06610c56565b1515610a1157600080fd5b80600160000160008481526020019081526020016000209080519060200190610a3b92919061110c565b505050565b6000610a4a610c56565b1515610a5557600080fd5b60018001600083815260200190815260200160002060009054906101000a900460ff169050919050565b610a87610c56565b1515610a9257600080fd5b8060016002016000848152602001908152602001600020819055505050565b610ab9610c56565b1515610ac457600080fd5b600160000160008281526020019081526020016000206000610ae6919061118c565b50565b610af1610c56565b1515610afc57600080fd5b80600160050160008481526020019081526020016000209080519060200190610b269291906111d4565b505050565b610b33610c56565b1515610b3e57600080fd5b600073ffffffffffffffffffffffffffffffffffffffff166000809054906101000a900473ffffffffffffffffffffffffffffffffffffffff1673ffffffffffffffffffffffffffffffffffffffff167f8be0079c531659141344cd1fd0a4f28419497f9722a3daafe3b4186f6b6457e060405160405180910390a360008060006101000a81548173ffffffffffffffffffffffffffffffffffffffff021916908373ffffffffffffffffffffffffffffffffffffffff160217905550565b610c05610c56565b1515610c1057600080fd5b600160020160008281526020019081526020016000206000905550565b60008060009054906101000a900473ffffffffffffffffffffffffffffffffffffffff16905090565b60008060009054906101000a900473ffffffffffffffffffffffffffffffffffffffff1673ffffffffffffffffffffffffffffffffffffffff163373ffffffffffffffffffffffffffffffffffffffff1614905090565b6060610cb7610c56565b1515610cc257600080fd5b600160050160008381526020019081526020016000208054600181600116156101000203166002900480601f016020809104026020016040519081016040528092919081815260200182805460018160011615610100020316600290048015610d6c5780601f10610d4157610100808354040283529160200191610d6c565b820191906000526020600020905b815481529060010190602001808311610d4f57829003601f168201915b50505050509050919050565b6000610d82610c56565b1515610d8d57600080fd5b60016003016000838152602001908152602001600020549050919050565b6060610db5610c56565b1515610dc057600080fd5b600160000160008381526020019081526020016000208054600181600116156101000203166002900480601f016020809104026020016040519081016040528092919081815260200182805460018160011615610100020316600290048015610e6a5780601f10610e3f57610100808354040283529160200191610e6a565b820191906000526020600020905b815481529060010190602001808311610e4d57829003601f168201915b50505050509050919050565b610e7e610c56565b1515610e8957600080fd5b806001600401600084815260200190815260200160002060006101000a81548173ffffffffffffffffffffffffffffffffffffffff021916908373ffffffffffffffffffffffffffffffffffffffff1602179055505050565b6000610eec610c56565b1515610ef757600080fd5b60016002016000838152602001908152602001600020549050919050565b610f1d610c56565b1515610f2857600080fd5b8060016003016000848152602001908152602001600020819055505050565b610f4f610c56565b1515610f5a57600080fd5b600160030160008281526020019081526020016000206000905550565b610f7f610c56565b1515610f8a57600080fd5b610f9381611012565b50565b610f9e610c56565b1515610fa957600080fd5b600160050160008281526020019081526020016000206000610fcb9190611254565b50565b610fd6610c56565b1515610fe157600080fd5b8060018001600084815260200190815260200160002060006101000a81548160ff0219169083151502179055505050565b600073ffffffffffffffffffffffffffffffffffffffff168173ffffffffffffffffffffffffffffffffffffffff161415151561104e57600080fd5b8073ffffffffffffffffffffffffffffffffffffffff166000809054906101000a900473ffffffffffffffffffffffffffffffffffffffff1673ffffffffffffffffffffffffffffffffffffffff167f8be0079c531659141344cd1fd0a4f28419497f9722a3daafe3b4186f6b6457e060405160405180910390a3806000806101000a81548173ffffffffffffffffffffffffffffffffffffffff021916908373ffffffffffffffffffffffffffffffffffffffff16021790555050565b828054600181600116156101000203166002900490600052602060002090601f016020900481019282601f1061114d57805160ff191683800117855561117b565b8280016001018555821561117b579182015b8281111561117a57825182559160200191906001019061115f565b5b509050611188919061129c565b5090565b50805460018160011615610100020316600290046000825580601f106111b257506111d1565b601f0160209004906000526020600020908101906111d0919061129c565b5b50565b828054600181600116156101000203166002900490600052602060002090601f016020900481019282601f1061121557805160ff1916838001178555611243565b82800160010185558215611243579182015b82811115611242578251825591602001919060010190611227565b5b509050611250919061129c565b5090565b50805460018160011615610100020316600290046000825580601f1061127a5750611299565b601f016020900490600052602060002090810190611298919061129c565b5b50565b6112be91905b808211156112ba5760008160009055506001016112a2565b5090565b9056fea165627a7a72305820a347b17872c066863adb04f39aa6fdf98df609fe2ed197e6a55fad2569d5eedb0029",
  "source": "pragma solidity ^0.5.0;\r\n\r\n\r\nimport \"openzeppelin-solidity/contracts/math/SafeMath.sol\";\r\nimport \"openzeppelin-solidity/contracts/ownership/Ownable.sol\";\r\nimport \"openzeppelin-solidity/contracts/lifecycle/Pausable.sol\";\r\nimport \"./external/EternalStorage.sol\";\r\n\r\n\r\n/** @title Media Manager contract using Proof of Existence to validate ownership.\r\n  * This contract uses zeppelin's Ownable and Pausable imports to manage owner capabilities\r\n  * and pause the sensitive functionalities of the contract when necessary.\r\n  *\r\n  * The information stored using this contract is put into a EternalStorage variable\r\n  * to allow upgradeability of the contract while preserving state data following\r\n  * zeppelinos guidelines about EternalStorage.\r\n  */\r\ncontract MediaManager is Ownable, Pausable{\r\n    // Type declarations of the contract\r\n    using SafeMath for uint;\r\n    \r\n    // State variables of the contract\r\n    EternalStorage internal db;\r\n\r\n    // Events of the contract\r\n    event MediaAdded(\r\n        bytes32 indexed publicMediaHash, \r\n        uint indexed mediaIndex, \r\n        address indexed mediaOwner\r\n    );\r\n    event MediaDeleted(\r\n        bytes32 indexed publicMediaHash, \r\n        uint indexed mediaIndex, \r\n        address indexed mediaOwner\r\n    );\r\n    event ContractTransfered(address indexed oldAddress, address indexed newAddress);\r\n\r\n    // Contract's constructor\r\n    constructor() public {\r\n        Ownable(msg.sender);\r\n        db = new EternalStorage();\r\n        // initialize mapping indexes to use while saving or retrieving proof data\r\n        // from EternalStorage.\r\n        // Store index of last added media. \r\n        // (set at 0 because no media exists when first instantiated)\r\n        db.setUint(getHashIndex(\"lastMediaIndex\"), 0);\r\n    }\r\n\r\n    /** @dev Fallback to reject any ether sent to contract\r\n    */\r\n    function () external { }\r\n\r\n    // Public functions\r\n    /** @dev Give the contract proxy to a new contract by allowing it to manipulate storage\r\n    * @param newAddress the address of new contract proxy deployed.\r\n    * @return success If the transaction is processed successfully\r\n    */\r\n    function upgradeContract(address newAddress) public onlyOwner returns (bool success) {\r\n        require(newAddress != address(0), \"should provide a valid address to upgrade.\");        \r\n        // Emit the corresponding event\r\n        emit ContractTransfered(owner(), newAddress);\r\n        // Transfer ownership of the state data to the new address\r\n        db.transferOwnership(newAddress);\r\n\r\n        return true;\r\n    }\r\n\r\n    // Internal functions\r\n    /** @dev Computes the hash to use as index to store a value in the .\r\n    * @param mappingName the name to use if we want to have some structured\r\n    * information pattern like struct while saving data in the EternalStorage.\r\n    * @param index the index to use for the structured data collection index\r\n    * in the storage.\r\n    * @param varName a name to have as reference for the variable inside the\r\n    * mapping like a property of a struct in terms of reference.\r\n    * @return the hash to use as index for the corresponding mapping inside\r\n    * the EternalStorage.\r\n    */\r\n    function getHashIndex(string memory mappingName, uint index, string memory varName) \r\n        internal \r\n        pure \r\n        returns (bytes32 nHash) \r\n    {\r\n        nHash = keccak256(abi.encodePacked(mappingName, index, varName));\r\n    }\r\n\r\n    /** @dev Computes the hash to use as index to store a value in the .\r\n    * @param mappingName the name to use if we want to have some structured\r\n    * information pattern like struct while saving data in the EternalStorage.\r\n    * @param ownerAddress the owner of the resource to calculate this hash.\r\n    * @param varName a name to have as reference for the variable inside the\r\n    * mapping like a property of a struct in terms of reference.\r\n    * @return the hash to use as index for the corresponding mapping inside\r\n    * the EternalStorage.\r\n    */\r\n    function getHashIndex(\r\n        string memory mappingName, \r\n        address ownerAddress, \r\n        string memory varName\r\n    ) \r\n        internal \r\n        pure \r\n        returns (bytes32 nHash) \r\n    {\r\n        nHash = keccak256(abi.encodePacked(mappingName, ownerAddress, varName));\r\n    }\r\n\r\n    /** @dev Computes the hash to use as index to store a value in the .\r\n    * @param mappingName the name to use if we want to have some structured\r\n    * information pattern like struct while saving data in the EternalStorage.\r\n    * @param ownerAddress the owner of the resource to calculate this hash.\r\n    * @param varName a name to have as reference for the variable inside the\r\n    * mapping like a property of a struct in terms of reference.\r\n    * @return the hash to use as index for the corresponding mapping inside\r\n    * the EternalStorage.\r\n    */\r\n    function getHashIndex(string memory mappingName, address ownerAddress, uint varName) \r\n        internal \r\n        pure \r\n        returns (bytes32 nHash) \r\n    {\r\n        nHash = keccak256(abi.encodePacked(mappingName, ownerAddress, varName));\r\n    }\r\n\r\n    /** @dev Computes the hash to use as index to store a value in the .\r\n    * @param mappingName the name to use if we want to have some structured\r\n    * information pattern like struct while saving data in the EternalStorage.\r\n    * @param varName a name to have as reference for the variable inside the\r\n    * mapping like a property of a struct in terms of reference.\r\n    * @return the hash to use as index for the corresponding mapping inside\r\n    * the EternalStorage.\r\n    */\r\n    function getHashIndex(string memory mappingName, string memory varName) \r\n        internal \r\n        pure \r\n        returns (bytes32 nHash) \r\n    {\r\n        nHash = keccak256(abi.encodePacked(mappingName, varName));\r\n    }\r\n\r\n    /** @dev Computes the hash to use as index to store a value in the .\r\n    * @param mappingName the name to use if we want to have some structured\r\n    * information pattern like struct while saving data in the EternalStorage.\r\n    * @return the hash to use as index for the corresponding mapping inside\r\n    * the EternalStorage.\r\n    */\r\n    function getHashIndex(string memory mappingName) \r\n        internal \r\n        pure \r\n        returns (bytes32 nHash) \r\n    {\r\n        nHash = keccak256(abi.encodePacked(mappingName));\r\n    }\r\n\r\n    /** @dev Reads the owner of a media file in the given index from storage.\r\n    * @param mediaIndex the index id stored for the media file.\r\n    * @return the address of the owner of this media file if found.\r\n    */\r\n    function getMediaOwner(uint mediaIndex) \r\n        internal \r\n        view \r\n        returns (address mediaOwner) \r\n    {\r\n        // Get the owner address of the media\r\n        mediaOwner = db.getAddress(getHashIndex(\"mediaMap\", mediaIndex, \"mediaOwner\"));\r\n    }\r\n    \r\n    /** @dev Registers an IPFS file hash and its extra data to  the contract's storage.\r\n    * @param mediaHash the IPFS file hash to register.\r\n    * @param isVideo determines if the hash stored corresponds to a video uploaded to IPFS.\r\n    * @param title a title to give to the upload media for screening purposes.\r\n    * @param description a short description to give about the uploaded media.\r\n    * @return the publicHash that would be used as a proof of the existence of the media file\r\n    * in the blockchain if the transaction ocurred without errors.\r\n    */\r\n    function addOwnedMedia(\r\n        string memory mediaHash, \r\n        bool isVideo, \r\n        string memory title, \r\n        string memory description\r\n    ) \r\n        public \r\n        whenNotPaused() \r\n        returns (bytes32 publicHash) \r\n    {\r\n        // The same media cannot be added twice\r\n        require(db.getUint(getHashIndex(\"mediaHashMap\", mediaHash)) == 0, \"Media file should not exists.\");\r\n        // Get saved media index count starting at 0 and add 1 to insert first at 1;\r\n        uint mediaIndex = db.getUint(getHashIndex(\"lastMediaIndex\")).add(1);\r\n        // Get saved media index for current caller of the method.\r\n        uint userMediaIndex = db.getUint(getHashIndex(\"userMediaMap\", msg.sender, \"userMediaIndex\"));\r\n        // Get the public hash that will be used as a reference for the stored\r\n        // media file instead of using the IPFS hash directly.\r\n        publicHash = getHashIndex(\"mediaHashMap\", mediaHash);\r\n\r\n        // Save main information aboud the media file to add\r\n        // Save wether the uploaded media is a video property.\r\n        db.setBoolean(getHashIndex(\"mediaMap\", mediaIndex, \"isVideo\"), isVideo);\r\n        // Save the associated title to the media.\r\n        db.setString(getHashIndex(\"mediaMap\", mediaIndex, \"title\"), title);\r\n        // Save the description associated to the media.\r\n        db.setString(getHashIndex(\"mediaMap\", mediaIndex, \"description\"), description);\r\n        // Save the timestamp of this transaction in the mapping\r\n        db.setUint(getHashIndex(\"mediaMap\", mediaIndex, \"timestamp\"), now);\r\n        // Save the media hash obtained fro IPFS\r\n        db.setString(getHashIndex(\"mediaMap\", mediaIndex, \"mediaHash\"), mediaHash);\r\n        // Save the owner address of the media\r\n        db.setAddress(getHashIndex(\"mediaMap\", mediaIndex, \"mediaOwner\"), msg.sender);\r\n\r\n        // Save information regarding the map of users and its media files.\r\n        // Store the reference of the current media file associated with a \r\n        // key created using the users address and the current index in the map.\r\n        db.setUint(getHashIndex(\"userMediaMap\", msg.sender, userMediaIndex), mediaIndex);\r\n        // Store the index for the next media file to add in the map array.\r\n        db.setUint(getHashIndex(\"userMediaMap\", msg.sender, \"userMediaIndex\"), userMediaIndex.add(1));\r\n\r\n        // Save index information of the media hash and its current position in the maps.\r\n        // Save current media index with the hash as its key\r\n        db.setUint(publicHash, mediaIndex);\r\n        // Update info regarding the last inserterd media index\r\n        db.setUint(getHashIndex(\"lastMediaIndex\"), mediaIndex);\r\n\r\n        // emit corresponding event\r\n        emit MediaAdded(publicHash, mediaIndex, msg.sender);\r\n\r\n        return publicHash;\r\n    }\r\n\r\n    /** @dev Deletes an IPFS file hash and its extra data of the contract's storage.\r\n    * @param publicHash the IPFS file hash to delete.\r\n    * @return boolean value indicating that the delete operation was successsful.\r\n    */\r\n    function deleteOwnedMedia(bytes32 publicHash) \r\n        public \r\n        whenNotPaused() \r\n        returns (bool mediaDeleted) \r\n    {\r\n        // Get saved media index of the media file.\r\n        uint mediaIndex = db.getUint(publicHash);\r\n        // The media file must exists in the storage.\r\n        require(mediaIndex != 0, \"The media file to delete must exist!\");\r\n        // The owner of the media file must be the one calling this method\r\n        require(\r\n            getMediaOwner(mediaIndex) == msg.sender,\r\n            \"Only the owner of the media file can delete it!\"\r\n        );\r\n\r\n        // Get saved media index for current caller of the method.\r\n        uint userMediaIndex = db.getUint(getHashIndex(\"userMediaMap\", msg.sender, \"userMediaIndex\"));\r\n\r\n        // Delete main information aboud the media file\r\n        // Delete is a video property.\r\n        db.deleteBool(getHashIndex(\"mediaMap\", mediaIndex, \"isVideo\"));\r\n        // Delete the associated title to the media.\r\n        db.deleteString(getHashIndex(\"mediaMap\", mediaIndex, \"title\"));\r\n        // Delete the description associated to the media.\r\n        db.deleteString(getHashIndex(\"mediaMap\", mediaIndex, \"description\"));\r\n        // Delete the timestamp of this transaction in the mapping\r\n        db.deleteUint(getHashIndex(\"mediaMap\", mediaIndex, \"timestamp\"));\r\n        // Delete the media hash obtained fro IPFS\r\n        db.deleteString(getHashIndex(\"mediaMap\", mediaIndex, \"mediaHash\"));\r\n        // Delete the owner address of the media\r\n        db.deleteAddress(getHashIndex(\"mediaMap\", mediaIndex, \"mediaOwner\"));\r\n\r\n        // delete information regarding the map of users and its media files.\r\n        // delete the reference of the current media file associated with a \r\n        // key created using the users address and the current index in the map.\r\n        db.deleteUint(getHashIndex(\"userMediaMap\", msg.sender, userMediaIndex));\r\n        // Delete current media index with the hash as its key\r\n        db.deleteUint(publicHash);\r\n\r\n        // emit corresponding event\r\n        emit MediaDeleted(publicHash, mediaIndex, msg.sender);\r\n        mediaDeleted = true;\r\n\r\n        return mediaDeleted;\r\n    }    \r\n\r\n    /** @dev Returns all the information stored about the media file in the corresponding\r\n    * index sent as parameter.\r\n    * @param mediaIndex - index of registered media file in the storage.\r\n    * @return the media file is a video (isVideo).\r\n    * @return associated title of the media file (title).\r\n    * @return associated description of the media file (description).\r\n    * @return the timestamp when media file was saved in the blockchain.\r\n    * @return the media file hash obtained fro IPFS.\r\n    * @return the address of the owner of this media file.\r\n    */\r\n    function getMedia(uint mediaIndex) public view returns (\r\n        bool isVideo,\r\n        string memory title,\r\n        string memory description,\r\n        uint timestamp,\r\n        string memory mediaHash,\r\n        address mediaOwner\r\n    ) {\r\n        require(mediaIndex > 0, \"Media index must be greater than 0.\");\r\n        // Get saved media index for current caller of the method.\r\n        uint userMediaIndex = db.getUint(getHashIndex(\"userMediaMap\", msg.sender, \"userMediaIndex\"));\r\n        // Get the owner address of the media\r\n        mediaOwner = db.getAddress(getHashIndex(\"mediaMap\", mediaIndex, \"mediaOwner\"));\r\n        require(\r\n            db.getUint(getHashIndex(\"userMediaMap\", mediaOwner, userMediaIndex)) == mediaIndex,\r\n            \"Media file not found or it's not assigned to the right owner.\"\r\n        );\r\n        // Get information aboud the media file added\r\n        // Get is a video property.\r\n        isVideo = db.getBoolean(getHashIndex(\"mediaMap\", mediaIndex, \"isVideo\"));\r\n        // Get the associated title to the media.\r\n        title = db.getString(getHashIndex(\"mediaMap\", mediaIndex, \"title\"));\r\n        // Get the description associated to the media.\r\n        description = db.getString(getHashIndex(\"mediaMap\", mediaIndex, \"description\"));\r\n        // Get the timestamp of this transaction in the mapping\r\n        timestamp = db.getUint(getHashIndex(\"mediaMap\", mediaIndex, \"timestamp\"));\r\n        // Get the media hash obtained fro IPFS\r\n        mediaHash = db.getString(getHashIndex(\"mediaMap\", mediaIndex, \"mediaHash\"));\r\n        \r\n\r\n        return (isVideo, title, description, timestamp, mediaHash, mediaOwner);\r\n    }\r\n\r\n    /** @dev Returns all the information stored about a media file given a media owner and \r\n    * the index of the media file in user's media array.\r\n    * @param mediaOwner Address of the media owner.\r\n    * @param mediaIndex - Index of saved media file in user's media array.\r\n    * @return the media file is a video (isVideo).\r\n    * @return associated title of the media file (title).\r\n    * @return associated description of the media file (description).\r\n    * @return the timestamp when media file was saved in the blockchain.\r\n    * @return the media file hash obtained fro IPFS.\r\n    * @return the address of the owner of this media file.\r\n    */\r\n    function getUserMedia(address mediaOwner, uint mediaIndex) public view returns (\r\n        bool isVideo,\r\n        string memory title,\r\n        string memory description,\r\n        uint timestamp,\r\n        string memory mediaHash,\r\n        address owner\r\n    ) {\r\n        // Get the user media index from user's media array\r\n        uint userMediaIndex = db.getUint(getHashIndex(\"userMediaMap\", mediaOwner, \"userMediaIndex\"));\r\n        // Get the media index associated form the users's media array\r\n        uint _mediaIndex = db.getUint(getHashIndex(\"userMediaMap\", mediaOwner, mediaIndex));\r\n        // verify the index and check for overflow/underflow.\r\n        require(mediaIndex <= userMediaIndex.sub(1), \"Overflow detected.\");\r\n\r\n        // return the associated media file.\r\n        return getMedia(_mediaIndex);\r\n    }\r\n\r\n    /** @dev Shortcut utility function to check wether a media file hash has been inserted\r\n    * in the storage using the IPFS media file hash to check for existence.\r\n    * @param mediaHash the IPFS file hash to verify.\r\n    * @return boolean indicating if media file exists.\r\n    */\r\n    function checkIfExists(string memory mediaHash) public view returns (bool mediaExists) {\r\n        mediaExists = db.getUint(getHashIndex(\"mediaHashMap\", mediaHash)) > 0;\r\n    }\r\n\r\n    /** @dev Shortcut utility function to read a media file's index by its hash.\r\n    * @param mediaHash the IPFS media file hash registered.\r\n    * @return uint media file index if exists or zero (0).\r\n    */\r\n    function getMediaIndexByHash(string memory mediaHash) public view returns (uint mediaIndex) {\r\n        mediaIndex = db.getUint(getHashIndex(\"mediaHashMap\", mediaHash));\r\n    }\r\n\r\n    /** @dev Shortcut utility function to check wether a media file hash has been inserted\r\n    * in the storage using the IPFS media file hash to check for existence.\r\n    * @param publicHash the public media file hash computed when the media was added\r\n    * to the blockchain by its owner.\r\n    * @return boolean indicating if media file exists.\r\n    */\r\n    function checkIfExistsByPublicHash(bytes32 publicHash) public view returns (bool mediaExists) {\r\n        mediaExists = db.getUint(publicHash) > 0;\r\n    }\r\n\r\n    /** @dev Shortcut utility function to read a media file's index by its hash.\r\n    * @param publicHash the public media file hash computed when the media was added\r\n    * to the blockchain by its owner.\r\n    * @return uint media file index if exists or zero (0).\r\n    */\r\n    function getMediaIndexByPublicHash(bytes32 publicHash) public view returns (uint mediaIndex) {\r\n        mediaIndex = db.getUint(publicHash);\r\n    }\r\n\r\n    /** @dev Shortcut utility function to get all the information of a given media file\r\n    * by using its media hash to obtain the data.\r\n    * @param publicHash the IPFS media file hash saved.\r\n    * @return the media file is a video (isVideo).\r\n    * @return associated title of the media file (title).\r\n    * @return associated description of the media file (description).\r\n    * @return the timestamp when media file was saved in the blockchain.\r\n    * @return the media file hash obtained fro IPFS.\r\n    * @return the address of the owner of this media file.\r\n    */\r\n    function getMediaByPublicHash(bytes32 publicHash) public view returns (\r\n        bool isVideo,\r\n        string memory title,\r\n        string memory description,\r\n        uint timestamp,\r\n        string memory mediaHash,\r\n        address mediaOwner\r\n    ) {\r\n        return getMedia(getMediaIndexByPublicHash(publicHash));\r\n    }\r\n\r\n    /** @dev Reads the last inserted media file index from storage.\r\n    * @return Last inserted media file index.\r\n    */\r\n    function lastMediaIndex() public view returns (uint) {\r\n        return db.getUint(getHashIndex(\"lastMediaIndex\"));\r\n    }\r\n    \r\n}\r\n",
  "sourcePath": "/mnt/d/Documents/GitHub/consensys-eth-dev-bc-final-project-poa/contracts/MediaManager.sol",
  "compiler": {
    "name": "solc",
    "version": "0.5.0+commit.1d4f565a.Emscripten.clang"
  },
  "schemaVersion": "3.0.1",
  "updatedAt": "2019-01-12T14:24:59.462Z",
  "devdoc": {
    "methods": {
      "addOwnedMedia(string,bool,string,string)": {
        "details": "Registers an IPFS file hash and its extra data to  the contract's storage.\r",
        "params": {
          "description": "a short description to give about the uploaded media.\r",
          "isVideo": "determines if the hash stored corresponds to a video uploaded to IPFS.\r",
          "mediaHash": "the IPFS file hash to register.\r",
          "title": "a title to give to the upload media for screening purposes.\r"
        },
        "return": "the publicHash that would be used as a proof of the existence of the media file\r in the blockchain if the transaction ocurred without errors.\r"
      },
      "checkIfExists(string)": {
        "details": "Shortcut utility function to check wether a media file hash has been inserted\r in the storage using the IPFS media file hash to check for existence.\r",
        "params": {
          "mediaHash": "the IPFS file hash to verify.\r"
        },
        "return": "boolean indicating if media file exists.\r"
      },
      "checkIfExistsByPublicHash(bytes32)": {
        "details": "Shortcut utility function to check wether a media file hash has been inserted\r in the storage using the IPFS media file hash to check for existence.\r",
        "params": {
          "publicHash": "the public media file hash computed when the media was added\r to the blockchain by its owner.\r"
        },
        "return": "boolean indicating if media file exists.\r"
      },
      "deleteOwnedMedia(bytes32)": {
        "details": "Deletes an IPFS file hash and its extra data of the contract's storage.\r",
        "params": {
          "publicHash": "the IPFS file hash to delete.\r"
        },
        "return": "boolean value indicating that the delete operation was successsful.\r"
      },
      "getMedia(uint256)": {
        "details": "Returns all the information stored about the media file in the corresponding\r index sent as parameter.\r",
        "params": {
          "mediaIndex": "- index of registered media file in the storage.\r"
        },
        "return": "the media file is a video (isVideo).\rassociated title of the media file (title).\rassociated description of the media file (description).\rthe timestamp when media file was saved in the blockchain.\rthe media file hash obtained fro IPFS.\rthe address of the owner of this media file.\r"
      },
      "getMediaByPublicHash(bytes32)": {
        "details": "Shortcut utility function to get all the information of a given media file\r by using its media hash to obtain the data.\r",
        "params": {
          "publicHash": "the IPFS media file hash saved.\r"
        },
        "return": "the media file is a video (isVideo).\rassociated title of the media file (title).\rassociated description of the media file (description).\rthe timestamp when media file was saved in the blockchain.\rthe media file hash obtained fro IPFS.\rthe address of the owner of this media file.\r"
      },
      "getMediaIndexByHash(string)": {
        "details": "Shortcut utility function to read a media file's index by its hash.\r",
        "params": {
          "mediaHash": "the IPFS media file hash registered.\r"
        },
        "return": "uint media file index if exists or zero (0).\r"
      },
      "getMediaIndexByPublicHash(bytes32)": {
        "details": "Shortcut utility function to read a media file's index by its hash.\r",
        "params": {
          "publicHash": "the public media file hash computed when the media was added\r to the blockchain by its owner.\r"
        },
        "return": "uint media file index if exists or zero (0).\r"
      },
      "getUserMedia(address,uint256)": {
        "details": "Returns all the information stored about a media file given a media owner and \r the index of the media file in user's media array.\r",
        "params": {
          "mediaIndex": "- Index of saved media file in user's media array.\r",
          "mediaOwner": "Address of the media owner.\r"
        },
        "return": "the media file is a video (isVideo).\rassociated title of the media file (title).\rassociated description of the media file (description).\rthe timestamp when media file was saved in the blockchain.\rthe media file hash obtained fro IPFS.\rthe address of the owner of this media file.\r"
      },
      "isOwner()": {
        "return": "true if `msg.sender` is the owner of the contract."
      },
      "lastMediaIndex()": {
        "details": "Reads the last inserted media file index from storage.\r",
        "return": "Last inserted media file index.\r"
      },
      "owner()": {
        "return": "the address of the owner."
      },
      "pause()": {
        "details": "called by the owner to pause, triggers stopped state"
      },
      "paused()": {
        "return": "true if the contract is paused, false otherwise."
      },
      "renounceOwnership()": {
        "details": "Allows the current owner to relinquish control of the contract."
      },
      "transferOwnership(address)": {
        "details": "Allows the current owner to transfer control of the contract to a newOwner.",
        "params": {
          "newOwner": "The address to transfer ownership to."
        }
      },
      "unpause()": {
        "details": "called by the owner to unpause, returns to normal state"
      },
      "upgradeContract(address)": {
        "details": "Give the contract proxy to a new contract by allowing it to manipulate storage\r",
        "params": {
          "newAddress": "the address of new contract proxy deployed.\r"
        },
        "return": "success If the transaction is processed successfully\r"
      }
    },
    "title": "Media Manager contract using Proof of Existence to validate ownership.\r This contract uses zeppelin's Ownable and Pausable imports to manage owner capabilities\r and pause the sensitive functionalities of the contract when necessary.\r   * The information stored using this contract is put into a EternalStorage variable\r to allow upgradeability of the contract while preserving state data following\r zeppelinos guidelines about EternalStorage.\r"
  },
  "userdoc": {
    "methods": {
      "renounceOwnership()": {
        "notice": "Renouncing to ownership will leave the contract without an owner. It will not be possible to call the functions with the `onlyOwner` modifier anymore."
      }
    }
  }
}